{"contracts/CredentialRegistry.sol":{"CredentialRegistry":{"abi":[{"inputs":[],"stateMutability":"nonpayable","type":"constructor"},{"inputs":[],"name":"AccessControlBadConfirmation","type":"error"},{"inputs":[{"internalType":"address","name":"account","type":"address"},{"internalType":"bytes32","name":"neededRole","type":"bytes32"}],"name":"AccessControlUnauthorizedAccount","type":"error"},{"inputs":[],"name":"EnforcedPause","type":"error"},{"inputs":[],"name":"ExpectedPause","type":"error"},{"inputs":[],"name":"ReentrancyGuardReentrantCall","type":"error"},{"anonymous":false,"inputs":[{"indexed":true,"internalType":"bytes32","name":"credentialHash","type":"bytes32"},{"indexed":true,"internalType":"address","name":"issuer","type":"address"},{"indexed":false,"internalType":"uint256","name":"timestamp","type":"uint256"},{"indexed":false,"internalType":"string","name":"credentialId","type":"string"}],"name":"CredentialAnchored","type":"event"},{"anonymous":false,"inputs":[{"indexed":true,"internalType":"bytes32","name":"credentialHash","type":"bytes32"},{"indexed":true,"internalType":"address","name":"issuer","type":"address"},{"indexed":false,"internalType":"uint256","name":"timestamp","type":"uint256"},{"indexed":false,"internalType":"string","name":"reason","type":"string"}],"name":"CredentialRevoked","type":"event"},{"anonymous":false,"inputs":[{"indexed":true,"internalType":"address","name":"issuer","type":"address"},{"indexed":false,"internalType":"string","name":"did","type":"string"},{"indexed":false,"internalType":"string","name":"name","type":"string"},{"indexed":false,"internalType":"uint256","name":"timestamp","type":"uint256"}],"name":"IssuerRegistered","type":"event"},{"anonymous":false,"inputs":[{"indexed":true,"internalType":"address","name":"issuer","type":"address"},{"indexed":false,"internalType":"uint256","name":"timestamp","type":"uint256"}],"name":"IssuerRemoved","type":"event"},{"anonymous":false,"inputs":[{"indexed":false,"internalType":"address","name":"account","type":"address"}],"name":"Paused","type":"event"},{"anonymous":false,"inputs":[{"indexed":true,"internalType":"bytes32","name":"role","type":"bytes32"},{"indexed":true,"internalType":"bytes32","name":"previousAdminRole","type":"bytes32"},{"indexed":true,"internalType":"bytes32","name":"newAdminRole","type":"bytes32"}],"name":"RoleAdminChanged","type":"event"},{"anonymous":false,"inputs":[{"indexed":true,"internalType":"bytes32","name":"role","type":"bytes32"},{"indexed":true,"internalType":"address","name":"account","type":"address"},{"indexed":true,"internalType":"address","name":"sender","type":"address"}],"name":"RoleGranted","type":"event"},{"anonymous":false,"inputs":[{"indexed":true,"internalType":"bytes32","name":"role","type":"bytes32"},{"indexed":true,"internalType":"address","name":"account","type":"address"},{"indexed":true,"internalType":"address","name":"sender","type":"address"}],"name":"RoleRevoked","type":"event"},{"anonymous":false,"inputs":[{"indexed":false,"internalType":"address","name":"account","type":"address"}],"name":"Unpaused","type":"event"},{"anonymous":false,"inputs":[{"indexed":true,"internalType":"address","name":"verifier","type":"address"},{"indexed":false,"internalType":"string","name":"name","type":"string"},{"indexed":false,"internalType":"uint256","name":"timestamp","type":"uint256"}],"name":"VerifierRegistered","type":"event"},{"anonymous":false,"inputs":[{"indexed":true,"internalType":"address","name":"verifier","type":"address"},{"indexed":false,"internalType":"uint256","name":"timestamp","type":"uint256"}],"name":"VerifierRemoved","type":"event"},{"inputs":[],"name":"ADMIN_ROLE","outputs":[{"internalType":"bytes32","name":"","type":"bytes32"}],"stateMutability":"view","type":"function"},{"inputs":[],"name":"CONTRACT_NAME","outputs":[{"internalType":"string","name":"","type":"string"}],"stateMutability":"view","type":"function"},{"inputs":[],"name":"CONTRACT_VERSION","outputs":[{"internalType":"string","name":"","type":"string"}],"stateMutability":"view","type":"function"},{"inputs":[],"name":"DEFAULT_ADMIN_ROLE","outputs":[{"internalType":"bytes32","name":"","type":"bytes32"}],"stateMutability":"view","type":"function"},{"inputs":[],"name":"ISSUER_ROLE","outputs":[{"internalType":"bytes32","name":"","type":"bytes32"}],"stateMutability":"view","type":"function"},{"inputs":[],"name":"VERIFIER_ROLE","outputs":[{"internalType":"bytes32","name":"","type":"bytes32"}],"stateMutability":"view","type":"function"},{"inputs":[{"internalType":"bytes32","name":"credentialHash","type":"bytes32"},{"internalType":"string","name":"credentialId","type":"string"},{"internalType":"string","name":"ipfsHash","type":"string"},{"internalType":"string","name":"arweaveId","type":"string"}],"name":"anchorCredential","outputs":[],"stateMutability":"nonpayable","type":"function"},{"inputs":[{"internalType":"bytes32","name":"","type":"bytes32"}],"name":"credentials","outputs":[{"internalType":"bytes32","name":"hash","type":"bytes32"},{"internalType":"address","name":"issuer","type":"address"},{"internalType":"uint256","name":"timestamp","type":"uint256"},{"internalType":"bool","name":"isRevoked","type":"bool"},{"internalType":"string","name":"revocationReason","type":"string"},{"internalType":"string","name":"credentialId","type":"string"},{"internalType":"string","name":"ipfsHash","type":"string"},{"internalType":"string","name":"arweaveId","type":"string"}],"stateMutability":"view","type":"function"},{"inputs":[{"internalType":"address","name":"token","type":"address"},{"internalType":"address","name":"to","type":"address"},{"internalType":"uint256","name":"amount","type":"uint256"}],"name":"emergencyRecover","outputs":[],"stateMutability":"nonpayable","type":"function"},{"inputs":[],"name":"getContractStats","outputs":[{"internalType":"uint256","name":"totalCredentials","type":"uint256"},{"internalType":"uint256","name":"totalIssuers","type":"uint256"},{"internalType":"uint256","name":"totalVerifiers","type":"uint256"}],"stateMutability":"view","type":"function"},{"inputs":[{"internalType":"bytes32","name":"credentialHash","type":"bytes32"}],"name":"getCredential","outputs":[{"components":[{"internalType":"bytes32","name":"hash","type":"bytes32"},{"internalType":"address","name":"issuer","type":"address"},{"internalType":"uint256","name":"timestamp","type":"uint256"},{"internalType":"bool","name":"isRevoked","type":"bool"},{"internalType":"string","name":"revocationReason","type":"string"},{"internalType":"string","name":"credentialId","type":"string"},{"internalType":"string","name":"ipfsHash","type":"string"},{"internalType":"string","name":"arweaveId","type":"string"}],"internalType":"struct CredentialRegistry.Credential","name":"credential","type":"tuple"}],"stateMutability":"view","type":"function"},{"inputs":[{"internalType":"address","name":"issuer","type":"address"}],"name":"getIssuer","outputs":[{"components":[{"internalType":"string","name":"did","type":"string"},{"internalType":"string","name":"name","type":"string"},{"internalType":"bool","name":"isActive","type":"bool"},{"internalType":"uint256","name":"registrationDate","type":"uint256"},{"internalType":"uint256","name":"totalCredentials","type":"uint256"},{"internalType":"uint256","name":"revokedCredentials","type":"uint256"}],"internalType":"struct CredentialRegistry.Issuer","name":"","type":"tuple"}],"stateMutability":"view","type":"function"},{"inputs":[{"internalType":"address","name":"issuer","type":"address"}],"name":"getIssuerCredentials","outputs":[{"internalType":"bytes32[]","name":"","type":"bytes32[]"}],"stateMutability":"view","type":"function"},{"inputs":[{"internalType":"bytes32","name":"role","type":"bytes32"}],"name":"getRoleAdmin","outputs":[{"internalType":"bytes32","name":"","type":"bytes32"}],"stateMutability":"view","type":"function"},{"inputs":[{"internalType":"address","name":"verifier","type":"address"}],"name":"getVerifier","outputs":[{"components":[{"internalType":"string","name":"name","type":"string"},{"internalType":"bool","name":"isActive","type":"bool"},{"internalType":"uint256","name":"registrationDate","type":"uint256"},{"internalType":"uint256","name":"totalVerifications","type":"uint256"}],"internalType":"struct CredentialRegistry.Verifier","name":"","type":"tuple"}],"stateMutability":"view","type":"function"},{"inputs":[{"internalType":"bytes32","name":"role","type":"bytes32"},{"internalType":"address","name":"account","type":"address"}],"name":"grantRole","outputs":[],"stateMutability":"nonpayable","type":"function"},{"inputs":[{"internalType":"bytes32","name":"role","type":"bytes32"},{"internalType":"address","name":"account","type":"address"}],"name":"hasRole","outputs":[{"internalType":"bool","name":"","type":"bool"}],"stateMutability":"view","type":"function"},{"inputs":[{"internalType":"address","name":"issuer","type":"address"}],"name":"isIssuer","outputs":[{"internalType":"bool","name":"","type":"bool"}],"stateMutability":"view","type":"function"},{"inputs":[{"internalType":"address","name":"verifier","type":"address"}],"name":"isVerifier","outputs":[{"internalType":"bool","name":"","type":"bool"}],"stateMutability":"view","type":"function"},{"inputs":[{"internalType":"address","name":"","type":"address"},{"internalType":"uint256","name":"","type":"uint256"}],"name":"issuerCredentials","outputs":[{"internalType":"bytes32","name":"","type":"bytes32"}],"stateMutability":"view","type":"function"},{"inputs":[{"internalType":"address","name":"","type":"address"}],"name":"issuers","outputs":[{"internalType":"string","name":"did","type":"string"},{"internalType":"string","name":"name","type":"string"},{"internalType":"bool","name":"isActive","type":"bool"},{"internalType":"uint256","name":"registrationDate","type":"uint256"},{"internalType":"uint256","name":"totalCredentials","type":"uint256"},{"internalType":"uint256","name":"revokedCredentials","type":"uint256"}],"stateMutability":"view","type":"function"},{"inputs":[],"name":"pause","outputs":[],"stateMutability":"nonpayable","type":"function"},{"inputs":[],"name":"paused","outputs":[{"internalType":"bool","name":"","type":"bool"}],"stateMutability":"view","type":"function"},{"inputs":[{"internalType":"string","name":"did","type":"string"},{"internalType":"string","name":"name","type":"string"}],"name":"registerIssuer","outputs":[],"stateMutability":"nonpayable","type":"function"},{"inputs":[{"internalType":"string","name":"name","type":"string"}],"name":"registerVerifier","outputs":[],"stateMutability":"nonpayable","type":"function"},{"inputs":[{"internalType":"address","name":"","type":"address"}],"name":"registeredAddresses","outputs":[{"internalType":"bool","name":"","type":"bool"}],"stateMutability":"view","type":"function"},{"inputs":[{"internalType":"address","name":"issuer","type":"address"}],"name":"removeIssuer","outputs":[],"stateMutability":"nonpayable","type":"function"},{"inputs":[{"internalType":"address","name":"verifier","type":"address"}],"name":"removeVerifier","outputs":[],"stateMutability":"nonpayable","type":"function"},{"inputs":[{"internalType":"bytes32","name":"role","type":"bytes32"},{"internalType":"address","name":"callerConfirmation","type":"address"}],"name":"renounceRole","outputs":[],"stateMutability":"nonpayable","type":"function"},{"inputs":[{"internalType":"bytes32","name":"credentialHash","type":"bytes32"},{"internalType":"string","name":"reason","type":"string"}],"name":"revokeCredential","outputs":[],"stateMutability":"nonpayable","type":"function"},{"inputs":[{"internalType":"bytes32","name":"role","type":"bytes32"},{"internalType":"address","name":"account","type":"address"}],"name":"revokeRole","outputs":[],"stateMutability":"nonpayable","type":"function"},{"inputs":[{"internalType":"bytes32","name":"","type":"bytes32"}],"name":"revokedCredentials","outputs":[{"internalType":"bool","name":"","type":"bool"}],"stateMutability":"view","type":"function"},{"inputs":[{"internalType":"bytes4","name":"interfaceId","type":"bytes4"}],"name":"supportsInterface","outputs":[{"internalType":"bool","name":"","type":"bool"}],"stateMutability":"view","type":"function"},{"inputs":[],"name":"unpause","outputs":[],"stateMutability":"nonpayable","type":"function"},{"inputs":[{"internalType":"address","name":"","type":"address"}],"name":"verifiers","outputs":[{"internalType":"string","name":"name","type":"string"},{"internalType":"bool","name":"isActive","type":"bool"},{"internalType":"uint256","name":"registrationDate","type":"uint256"},{"internalType":"uint256","name":"totalVerifications","type":"uint256"}],"stateMutability":"view","type":"function"},{"inputs":[{"internalType":"bytes32","name":"credentialHash","type":"bytes32"}],"name":"verifyCredential","outputs":[{"internalType":"bool","name":"isValid","type":"bool"},{"internalType":"address","name":"issuer","type":"address"},{"internalType":"uint256","name":"timestamp","type":"uint256"},{"internalType":"bool","name":"isRevoked","type":"bool"}],"stateMutability":"view","type":"function"}],"evm":{"bytecode":{"linkReferences":{},"object":"6080604052346200004f5760016002556200001a3362000054565b506200002633620000d4565b50620000323362000176565b506200003e3362000213565b50604051612bd59081620002b18239f35b600080fd5b6001600160a01b031660008181527fad3228b676f7d3cd4284a5443f17f1962b36e491b30a40b2405849e597ba5fb5602052604081205490919060ff16620000d057818052816020526040822081835260205260408220600160ff19825416179055339160008051602062002e868339815191528180a4600190565b5090565b6001600160a01b031660008181527f7d7ffb7a348e1c6a02869081a26547b49160dd3df72d1d75a570eb9b698292ec60205260408120549091907fa49807205ce4d355092ef5a8a18f56e8913cf4a201fbe287825b095693c217759060ff166200017157808352826020526040832082845260205260408320600160ff1982541617905560008051602062002e86833981519152339380a4600190565b505090565b6001600160a01b031660008181527ff9c002f57bb53b4d861ae1ef1369a8087d06c8210e4846f897918d0e534663ce60205260408120549091907f114e74f6ea3bd819998f78687bfcb11b140da08e9b7d222fa9c1f1ba1f2aa1229060ff166200017157808352826020526040832082845260205260408320600160ff1982541617905560008051602062002e86833981519152339380a4600190565b6001600160a01b031660008181527f1da0b5176dfe03406af5a6eed66ca01dda9b45ac4da671c3fa379cb93717ef8160205260408120549091907f0ce23c3e399818cfee81a7ab0880f714e53d7672b08df0fa62f2843416e1ea099060ff166200017157808352826020526040832082845260205260408320600160ff1982541617905560008051602062002e86833981519152339380a460019056fe608080604052600436101561001357600080fd5b60003560e01c90816301ffc9a7146121e857508063059ce95d1461212157806316cb421814611ea05780631abac44b14611e48578063248a9ca314611e19578063249b92a014611de8578063299d034814611d175780632f2ff15d14611cd85780633310521814611c5c57806336568abe14611c1557806338a7543e14611b7457806338b9033314611b2e5780633f4ba83a14611aa357806347bc709314611988578063493814b5146116685780634dbf87cc14611624578063595d8faa14610e555780635c975abb14610e32578063614d08f814610dd45780636c82448714610d5a57806375b238fc14610d3157806376b22eac14610cf257806382aefa2414610cb75780638456cb5914610c3d578063877b9a6714610bd257806391d1485414610b85578063a217fddf14610b69578063ad1329d114610b1d578063c7f13ff5146106af578063ca2dfd0a14610583578063d1be48831461040f578063d547741f146103ce578063d8202ffb1461031a578063dfe6b5d6146102eb578063e7705db6146102c25763fef03da3146101ab57600080fd5b346102bd576020806003193601126102bd5760c0906101c861223b565b600060a06040516101d8816122de565b60608152606085820152826040820152826060820152826080820152015260018060a01b031660005260078152604060002060405191610217836122de565b610220826123f3565b835261022e600183016123f3565b9181840192835260ff6002820154169260408501931515845261029e6003830154916060870192835261028b600560048601549560808a0196875201549560a08901968752604051998a99828b5251918a015260e0890190612267565b9051878203601f19016040890152612267565b9351151560608601525160808501525160a08401525160c08301520390f35b600080fd5b346102bd5760003660031901126102bd576020604051600080516020612b808339815191528152f35b346102bd5760003660031901126102bd5760606003546004546005549060405192835260208301526040820152f35b346102bd576020806003193601126102bd576001600160a01b0361033c61223b565b16600052600a8152604060002060405190818382549182815201908192600052846000209060005b868282106103ba57868661037a82880383612314565b604051928392818401908285525180915260408401929160005b8281106103a357505050500390f35b835185528695509381019392810192600101610394565b835485529093019260019283019201610364565b346102bd5760403660031901126102bd5761040d6004356103ed612251565b90806000526000602052610408600160406000200154612499565b6127c3565b005b346102bd576020806003193601126102bd5760e090604051610430816122c2565b600081526000828201526000604082015260609281600085809401528260808201528260a08201528260c082015201526004356000526006815261057f60406000209260405193610480856122c2565b805485528461056f60018060a01b0380600185015416948784019586526002850154906040850191825260ff6003870154169181860192151583526104c7600488016123f3565b936080870194855261050160076104e060058b016123f3565b9960a08a019a8b5260c06104f6600683016123f3565b9a01998a52016123f3565b9860e08d01998a528b6040519d8e9d8e5251908d0152511660408b015251908901525115156080880152519161055e610548610100948560a08b01526101208a0190612267565b945194601f1995868a83030160c08b0152612267565b9051848883030160e0890152612267565b9251918584030190850152612267565b0390f35b346102bd576020806003193601126102bd5761059d61223b565b90600080516020612b608339815191526000526000815260406000203360005281526105d060ff60406000205416612a23565b6105d8612908565b6105e06128ea565b6001600160a01b038216600081815260088352604090206001015490929060ff161561065857906106497f577461bde9fd030eb8b2941145223af9676a2dfae0f7c7d2456d7be21573a118928460005260088352600160406000200160ff19815416905561272a565b50604051428152a26001600255005b60405162461bcd60e51b815260048101839052602960248201527f4372656456657273653a205665726966696572206e6f7420666f756e64206f7260448201526820696e61637469766560b81b6064820152608490fd5b346102bd5760403660031901126102bd576004356001600160401b0381116102bd576106df903690600401612335565b6024356001600160401b0381116102bd576106fe903690600401612335565b336000908152600080516020612b2083398151915260205260409020546107279060ff16612a23565b61072f612908565b6107376128ea565b815115610adf5761074a81511515612a79565b33600052600960205261076560ff6040600020541615612ac5565b604051610771816122de565b8281528160208201526001604082015242606082015260006080820152600060a082015233600052600760205260406000209080518051906001600160401b038211610a025781906107c385546123b9565b601f8111610a8f575b50602090601f8311600114610a2357600092610a18575b50508160011b916000199060031b1c19161782555b60208101518051906001600160401b038211610a025761081b60018501546123b9565b601f81116109bb575b50602090601f83116001146109465791806005949260a09460009261093b575b50508160011b916000199060031b1c19161760018501555b61087b60408201511515600286019060ff801983541691151516179055565b606081015160038501556080810151600485015501519101553360005260096020526040600020600160ff198254161790556108b63361257d565b5060045460018101809111610925577fb90fab3f509b58e3f490dae1e5c582e8fde219064c5b98889d1a22f99fd38e84916109119160045561090360405194606086526060860190612267565b908482036020860152612267565b914260408201528033930390a26001600255005b634e487b7160e01b600052601160045260246000fd5b015190508880610844565b906001850160005260206000209160005b601f19851681106109a35750926005949260019260a09583601f1981161061098a575b505050811b01600185015561085c565b015160001960f88460031b161c1916905588808061097a565b91926020600181928685015181550194019201610957565b600185016000526020600020601f840160051c8101602085106109fb575b601f830160051c820181106109ef575050610824565b600081556001016109d9565b50806109d9565b634e487b7160e01b600052604160045260246000fd5b0151905086806107e3565b9250846000526020600020906000935b601f1984168510610a74576001945083601f19811610610a5b575b505050811b0182556107f8565b015160001960f88460031b161c19169055868080610a4e565b81810151835560209485019460019093019290910190610a33565b909150846000526020600020601f840160051c810160208510610ad8575b90849392915b601f830160051c82018110610ac95750506107cc565b60008155859450600101610ab3565b5080610aad565b60405162461bcd60e51b815260206004820152601660248201527510dc995915995c9cd94e88125b9d985b1a590811125160521b6044820152606490fd5b346102bd5760603660031901126102bd57610b3661223b565b50610b3f612251565b50336000908152600080516020612b20833981519152602052604090205461040d9060ff16612a23565b346102bd5760003660031901126102bd57602060405160008152f35b346102bd5760403660031901126102bd57610b9e612251565b600435600052600060205260406000209060018060a01b0316600052602052602060ff604060002054166040519015158152f35b346102bd5760203660031901126102bd57610beb61223b565b6001600160a01b03166000908152600080516020612b40833981519152602052604090205460ff1680610c26575b6020906040519015158152f35b50600760205260406000206002015460ff16610c19565b346102bd5760003660031901126102bd57336000908152600080516020612b208339815191526020526040902054610c779060ff16612a23565b610c7f6128ea565b600160ff19815416176001557f62e78cea01bee320cd4e420270b5ea74000d11b0c9f74754ebdbfc544b05a2586020604051338152a1005b346102bd5760003660031901126102bd5760206040517f114e74f6ea3bd819998f78687bfcb11b140da08e9b7d222fa9c1f1ba1f2aa1228152f35b346102bd5760203660031901126102bd576001600160a01b03610d1361223b565b166000526009602052602060ff604060002054166040519015158152f35b346102bd5760003660031901126102bd576020604051600080516020612b608339815191528152f35b346102bd5760203660031901126102bd576001600160a01b03610d7b61223b565b166000526008602052610dbe6040600020610d95816123f3565b9060ff600182015416906003600282015491015490604051948594608086526080860190612267565b9215156020850152604084015260608301520390f35b346102bd5760003660031901126102bd5761057f604051610df4816122f9565b601d81527f4372656456657273652043726564656e7469616c2052656769737472790000006020820152604051918291602083526020830190612267565b346102bd5760003660031901126102bd57602060ff600154166040519015158152f35b346102bd5760803660031901126102bd576024356001600160401b0381116102bd57610e85903690600401612335565b6044356001600160401b0381116102bd57610ea4903690600401612335565b6064356001600160401b0381116102bd57610ec3903690600401612335565b336000908152600080516020612b408339815191526020526040902054610eec9060ff16612838565b336000526007602052610f0960ff6002604060002001541661288f565b610f11612908565b610f196128ea565b600435156115d45782511561159057600435600052600660205260406000205461153f5760405190610f4a826122c2565b60043582526020820192338452604083014281526060840190600082526040519360208501938585106001600160401b03861117610a0257610ffc9460405260008652608087019586528860a088015260c087015260e0860152600435600052600660205260406000209585518755600187019060018060a01b039051166bffffffffffffffffffffffff60a01b825416179055516002860155511515600385019060ff801983541691151516179055565b519283516001600160401b038111610a025761101b60048501546123b9565b601f81116114f8575b506020601f821160011461148957819293949560009261147e575b50508160011b916000199060031b1c19161760048401555b60a08201519283516001600160401b038111610a025761107a60058301546123b9565b601f8111611437575b506020601f82116001146113c85781929394956000926113bd575b50508160011b916000199060031b1c19161760058201555b60c08301519283516001600160401b038111610a02576110d960068401546123b9565b601f8111611376575b506020601f821160011461130357819060e09495966000926112f8575b50508160011b916000199060031b1c19161760068401555b01518051906001600160401b038211610a025761113760078401546123b9565b601f81116112ad575b50602090601f831160011461123f576007929160009183611234575b50508160011b916000199060031b1c1916179101555b336000526007602052600460406000200161118d81546128db565b905533600052600a6020526040600020805468010000000000000000811015610a02576111bf9160018201815561238b565b81549060031b90600435821b91600019901b1916179055600354600181018091116109255760035560405190428252604060208301527f662785b6c849b5b04718a4178245524e1a62a43b3fa6827f6424d71eb1cb764933928061122a600435946040830190612267565b0390a36001600255005b01519050858061115c565b90601f198316916007850160005260206000209260005b8181106112955750916001939185600796941061127c575b505050811b01910155611172565b015160001960f88460031b161c1916905585808061126e565b92936020600181928786015181550195019301611256565b600784016000526020600020601f840160051c810191602085106112ee575b601f0160051c01905b8181106112e25750611140565b600081556001016112d5565b90915081906112cc565b0151905086806110ff565b6006840160005260206000209560005b601f198416811061135e575095829160e0959697600194601f19811610611345575b505050811b016006840155611117565b015160001960f88460031b161c19169055868080611335565b82820151885560019097019660209283019201611313565b600684016000526020600020601f830160051c8101602084106113b6575b601f830160051c820181106113aa5750506110e2565b60008155600101611394565b5080611394565b01519050858061109e565b6005830160005260206000209060005b601f198416811061141f575060019394959683601f19811610611406575b505050811b0160058201556110b6565b015160001960f88460031b161c191690558580806113f6565b9091602060018192858b0151815501930191016113d8565b600583016000526020600020601f830160051c810160208410611477575b601f830160051c8201811061146b575050611083565b60008155600101611455565b5080611455565b01519050858061103f565b6004850160005260206000209060005b601f19841681106114e0575060019394959683601f198116106114c7575b505050811b016004840155611057565b015160001960f88460031b161c191690558580806114b7565b9091602060018192858b015181550193019101611499565b600485016000526020600020601f830160051c810160208410611538575b601f830160051c8201811061152c575050611024565b60008155600101611516565b5080611516565b60405162461bcd60e51b8152602060048201526024808201527f4372656456657273653a2043726564656e7469616c20616c72656164792065786044820152636973747360e01b6064820152608490fd5b606460405162461bcd60e51b815260206004820152602060248201527f4372656456657273653a20496e76616c69642063726564656e7469616c2049446044820152fd5b60405162461bcd60e51b815260206004820152602260248201527f4372656456657273653a20496e76616c69642063726564656e7469616c2068616044820152610e6d60f31b6064820152608490fd5b346102bd5760203660031901126102bd576080611642600435612929565b6040805194151585526001600160a01b0390931660208501529183015215156060820152f35b346102bd5760403660031901126102bd576001600160401b036004356024358281116102bd5761169c903690600401612335565b336000908152600080516020612b4083398151915260209081526040909120549092906116cb9060ff16612838565b33600052600783526116e760ff6002604060002001541661288f565b6116ef612908565b6116f76128ea565b80600052600683526001923360018060a01b038560406000200154160361193a57816000526006815260ff600360406000200154166118e857816000526006815260406000206004600382019160ff19928784825416179055018451968711610a025761176481546123b9565b601f811161189f575b5082601f881160011461181b5796807f95d69bb5b24b6a634483884e0cc172a340175feaf6bcc320df0cf213855b381095969798600091611810575b50600019600383901b1c191690881b1790555b83600052600b825285604060002091825416179055336000526007815260056040600020016117eb81546128db565b905560408051914283528201528061180833956040830190612267565b0390a3600255005b9050870151896117a9565b601f1988169082600052846000209160005b81811061188a5750918991899a7f95d69bb5b24b6a634483884e0cc172a340175feaf6bcc320df0cf213855b381098999a9410611871575b5050811b0190556117bc565b89015160001960f88460031b161c191690558980611865565b8883015184559289019291860191860161182d565b8160005283600020601f890160051c810191858a106118de575b601f0160051c019087905b8281106118d257505061176d565b600081550187906118c4565b90915081906118b9565b6084906040519062461bcd60e51b82526004820152602560248201527f4372656456657273653a2043726564656e7469616c20616c72656164792072656044820152641d9bdad95960da1b6064820152fd5b6084906040519062461bcd60e51b82526004820152602160248201527f4372656456657273653a204f6e6c79206973737565722063616e207265766f6b6044820152606560f81b6064820152fd5b346102bd576020806003193601126102bd576119a261223b565b90600080516020612b608339815191526000526000815260406000203360005281526119d560ff60406000205416612a23565b6119dd612908565b6119e56128ea565b6001600160a01b038216600081815260078352604090206002015490929060ff1615611a4e57906106497f7d646dfe52f77b8ef31868b9cddadbd17ee190aba7615b1c4c456bf6e5f5a2da928460005260078352600260406000200160ff198154169055612691565b60405162461bcd60e51b815260048101839052602760248201527f4372656456657273653a20497373756572206e6f7420666f756e64206f7220696044820152666e61637469766560c81b6064820152608490fd5b346102bd5760003660031901126102bd57336000908152600080516020612b208339815191526020526040902054611add9060ff16612a23565b60015460ff811615611b1c5760ff19166001557f5db9ee0a495bf2e6ff9c91a7834c1ba4fdd244a5e8aa4e537bd38aeae4b073aa6020604051338152a1005b604051638dfc202b60e01b8152600490fd5b346102bd5760003660031901126102bd5761057f604051611b4e816122f9565b60058152640322e302e360dc1b6020820152604051918291602083526020830190612267565b346102bd5760203660031901126102bd576001600160a01b03611b9561223b565b166000526007602052611bec6040600020611baf816123f3565b90611bbc600182016123f3565b60ff600283015416916003810154611bfa600560048401549301549360405197889760c0895260c0890190612267565b908782036020890152612267565b93151560408601526060850152608084015260a08301520390f35b346102bd5760403660031901126102bd57611c2e612251565b336001600160a01b03821603611c4a5761040d906004356127c3565b60405163334bd91960e11b8152600490fd5b346102bd5760203660031901126102bd57611c7561223b565b6001600160a01b031660009081527f1da0b5176dfe03406af5a6eed66ca01dda9b45ac4da671c3fa379cb93717ef81602052604090205460ff1680611cc1576020906040519015158152f35b50600860205260406000206001015460ff16610c19565b346102bd5760403660031901126102bd5761040d600435611cf7612251565b90806000526000602052611d12600160406000200154612499565b612618565b346102bd5760203660031901126102bd5760043560005260066020526040600020805461057f60018060a01b0360018401541692611dda600282015491611dcc60ff600383015416611dbe611d6e600485016123f3565b611d7a600586016123f3565b92611d936007611d8c600689016123f3565b97016123f3565b976040519b8c9b8c5260208c015260408b0152151560608a01526101008060808b0152890190612267565b9087820360a0890152612267565b9085820360c0870152612267565b9083820360e0850152612267565b346102bd5760203660031901126102bd57600435600052600b602052602060ff604060002054166040519015158152f35b346102bd5760203660031901126102bd5760043560005260006020526020600160406000200154604051908152f35b346102bd5760403660031901126102bd57611e6161223b565b6001600160a01b03166000908152600a60205260409020805460243591908210156102bd57602091611e929161238b565b90546040519160031b1c8152f35b346102bd576020806003193601126102bd576001600160401b03906004358281116102bd57611ed3903690600401612335565b90600080516020612b60833981519152600052600081526040600020336000528152611f0660ff60406000205416612a23565b611f0e612908565b611f166128ea565b611f2282511515612a79565b3360005260098152611f3c60ff6040600020541615612ac5565b60405191611f49836122a7565b8083528183019260019384815260408201428152606083019160008352336000526008865260406000209351978851908111610a0257611f8985546123b9565b601f81116120d8575b5086601f821160011461206d579080611fde939260039798999a9b600092612062575b505060001982881b1c1916908a1b1786555b5115158886019060ff801983541691151516179055565b51600284015551910155336000526009825260406000208360ff19825416179055612008336124dd565b5060055490838201809211610925577f71b3df882fa4dfc3ef37e44d815996a4f4677008ebde3ae79ffe49fc7cf8a5879160055561205160405191604083526040830190612267565b9242908201528033930390a2600255005b015190508b80611fb5565b601f1982169086600052886000209160005b8181106120c357509183918b9c611fde969560039a9b9c9d95106120ab575b505050811b018655611fc7565b0151600019838a1b60f8161c191690558b808061209e565b8c8301518455928b0192918a01918a0161207f565b8560005287600020601f830160051c810191898410612117575b601f0160051c019089905b82811061210b575050611f92565b600081550189906120fd565b90915081906120f2565b346102bd576020806003193601126102bd5760809061213e61223b565b6000606060405161214e816122a7565b8181528285820152826040820152015260018060a01b03166000526008815260406000206040519161217f836122a7565b612188826123f3565b835260ff6001830154169181840192151583526121cf60036002830154926040870193845201549260608601938452604051968796828852519187015260a0860190612267565b9251151560408501525160608401525160808301520390f35b346102bd5760203660031901126102bd576004359063ffffffff60e01b82168092036102bd57602091637965db0b60e01b811490811561222a575b5015158152f35b6301ffc9a760e01b14905083612223565b600435906001600160a01b03821682036102bd57565b602435906001600160a01b03821682036102bd57565b919082519283825260005b848110612293575050826000602080949584010152601f8019910116010190565b602081830181015184830182015201612272565b608081019081106001600160401b03821117610a0257604052565b61010081019081106001600160401b03821117610a0257604052565b60c081019081106001600160401b03821117610a0257604052565b604081019081106001600160401b03821117610a0257604052565b90601f801991011681019081106001600160401b03821117610a0257604052565b81601f820112156102bd578035906001600160401b038211610a025760405192612369601f8401601f191660200185612314565b828452602083830101116102bd57816000926020809301838601378301015290565b80548210156123a35760005260206000200190600090565b634e487b7160e01b600052603260045260246000fd5b90600182811c921680156123e9575b60208310146123d357565b634e487b7160e01b600052602260045260246000fd5b91607f16916123c8565b9060405191826000825492612407846123b9565b9081845260019485811690816000146124765750600114612433575b505061243192500383612314565b565b9093915060005260209081600020936000915b81831061245e57505061243193508201013880612423565b85548884018501529485019487945091830191612446565b91505061243194506020925060ff191682840152151560051b8201013880612423565b80600052600060205260406000203360005260205260ff60406000205416156124bf5750565b6044906040519063e2517d3f60e01b82523360048301526024820152fd5b6001600160a01b031660008181527f1da0b5176dfe03406af5a6eed66ca01dda9b45ac4da671c3fa379cb93717ef816020526040812054909190600080516020612b808339815191529060ff1661257857808352826020526040832082845260205260408320600160ff198254161790557f2f8788117e7eff1d82e926ec794901d17c78024a50270940304540a733656f0d339380a4600190565b505090565b6001600160a01b03166000818152600080516020612b4083398151915260205260408120549091907f114e74f6ea3bd819998f78687bfcb11b140da08e9b7d222fa9c1f1ba1f2aa1229060ff1661257857808352826020526040832082845260205260408320600160ff198254161790557f2f8788117e7eff1d82e926ec794901d17c78024a50270940304540a733656f0d339380a4600190565b9060009180835282602052604083209160018060a01b03169182845260205260ff6040842054161560001461257857808352826020526040832082845260205260408320600160ff198254161790557f2f8788117e7eff1d82e926ec794901d17c78024a50270940304540a733656f0d339380a4600190565b6001600160a01b03166000818152600080516020612b4083398151915260205260408120549091907f114e74f6ea3bd819998f78687bfcb11b140da08e9b7d222fa9c1f1ba1f2aa1229060ff16156125785780835282602052604083208284526020526040832060ff1981541690557ff6391f5c32d9c69d2a47ea670b442974b53935d1edc7fd64eb21e047a839171b339380a4600190565b6001600160a01b031660008181527f1da0b5176dfe03406af5a6eed66ca01dda9b45ac4da671c3fa379cb93717ef816020526040812054909190600080516020612b808339815191529060ff16156125785780835282602052604083208284526020526040832060ff1981541690557ff6391f5c32d9c69d2a47ea670b442974b53935d1edc7fd64eb21e047a839171b339380a4600190565b9060009180835282602052604083209160018060a01b03169182845260205260ff6040842054166000146125785780835282602052604083208284526020526040832060ff1981541690557ff6391f5c32d9c69d2a47ea670b442974b53935d1edc7fd64eb21e047a839171b339380a4600190565b1561283f57565b60405162461bcd60e51b815260206004820152602260248201527f4372656456657273653a2043616c6c6572206973206e6f7420616e206973737560448201526132b960f11b6064820152608490fd5b1561289657565b60405162461bcd60e51b815260206004820152601f60248201527f4372656456657273653a20497373756572206973206e6f7420616374697665006044820152606490fd5b60001981146109255760010190565b60ff600154166128f657565b60405163d93c066560e01b8152600490fd5b60028054146129175760028055565b604051633ee5aeb560e01b8152600490fd5b60009081526006602052604081209160405191612945836122c2565b8354835260018060a01b0391826001860154169460208501958652600281015494604081019586526129bd600760ff60038501541693606084019415158552612990600482016123f3565b60808501526129a1600582016123f3565b60a08501526129b2600682016123f3565b60c0850152016123f3565b60e08201525115612a1657604060ff91511594858096612a0e575b9751169551941593600080516020612b80833981519152815280602052818120338252602052205416612a0757565b6008602052565b5060016129d8565b5092509250508180918190565b15612a2a57565b60405162461bcd60e51b815260206004820152602160248201527f4372656456657273653a2043616c6c6572206973206e6f7420616e2061646d696044820152603760f91b6064820152608490fd5b15612a8057565b60405162461bcd60e51b815260206004820152601760248201527f4372656456657273653a20496e76616c6964206e616d650000000000000000006044820152606490fd5b15612acc57565b60405162461bcd60e51b815260206004820152602560248201527f4372656456657273653a204164647265737320616c72656164792072656769736044820152641d195c995960da1b6064820152608490fdfe7d7ffb7a348e1c6a02869081a26547b49160dd3df72d1d75a570eb9b698292ecf9c002f57bb53b4d861ae1ef1369a8087d06c8210e4846f897918d0e534663cea49807205ce4d355092ef5a8a18f56e8913cf4a201fbe287825b095693c217750ce23c3e399818cfee81a7ab0880f714e53d7672b08df0fa62f2843416e1ea09a26469706673582212205e5c234b660db37a148c04e41d43e2358db94f6334949d692423d6a87db073cc64736f6c634300081400332f8788117e7eff1d82e926ec794901d17c78024a50270940304540a733656f0d","opcodes":"PUSH1 0x80 PUSH1 0x40 MSTORE CALLVALUE PUSH3 0x4F JUMPI PUSH1 0x1 PUSH1 0x2 SSTORE PUSH3 0x1A CALLER PUSH3 0x54 JUMP JUMPDEST POP PUSH3 0x26 CALLER PUSH3 0xD4 JUMP JUMPDEST POP PUSH3 0x32 CALLER PUSH3 0x176 JUMP JUMPDEST POP PUSH3 0x3E CALLER PUSH3 0x213 JUMP JUMPDEST POP PUSH1 0x40 MLOAD PUSH2 0x2BD5 SWAP1 DUP2 PUSH3 0x2B1 DUP3 CODECOPY RETURN JUMPDEST PUSH1 0x0 DUP1 REVERT JUMPDEST PUSH1 0x1 PUSH1 0x1 PUSH1 0xA0 SHL SUB AND PUSH1 0x0 DUP2 DUP2 MSTORE PUSH32 0xAD3228B676F7D3CD4284A5443F17F1962B36E491B30A40B2405849E597BA5FB5 PUSH1 0x20 MSTORE PUSH1 0x40 DUP2 KECCAK256 SLOAD SWAP1 SWAP2 SWAP1 PUSH1 0xFF AND PUSH3 0xD0 JUMPI DUP2 DUP1 MSTORE DUP2 PUSH1 0x20 MSTORE PUSH1 0x40 DUP3 KECCAK256 DUP2 DUP4 MSTORE PUSH1 0x20 MSTORE PUSH1 0x40 DUP3 KECCAK256 PUSH1 0x1 PUSH1 0xFF NOT DUP3 SLOAD AND OR SWAP1 SSTORE CALLER SWAP2 PUSH1 0x0 DUP1 MLOAD PUSH1 0x20 PUSH3 0x2E86 DUP4 CODECOPY DUP2 MLOAD SWAP2 MSTORE DUP2 DUP1 LOG4 PUSH1 0x1 SWAP1 JUMP JUMPDEST POP SWAP1 JUMP JUMPDEST PUSH1 0x1 PUSH1 0x1 PUSH1 0xA0 SHL SUB AND PUSH1 0x0 DUP2 DUP2 MSTORE PUSH32 0x7D7FFB7A348E1C6A02869081A26547B49160DD3DF72D1D75A570EB9B698292EC PUSH1 0x20 MSTORE PUSH1 0x40 DUP2 KECCAK256 SLOAD SWAP1 SWAP2 SWAP1 PUSH32 0xA49807205CE4D355092EF5A8A18F56E8913CF4A201FBE287825B095693C21775 SWAP1 PUSH1 0xFF AND PUSH3 0x171 JUMPI DUP1 DUP4 MSTORE DUP3 PUSH1 0x20 MSTORE PUSH1 0x40 DUP4 KECCAK256 DUP3 DUP5 MSTORE PUSH1 0x20 MSTORE PUSH1 0x40 DUP4 KECCAK256 PUSH1 0x1 PUSH1 0xFF NOT DUP3 SLOAD AND OR SWAP1 SSTORE PUSH1 0x0 DUP1 MLOAD PUSH1 0x20 PUSH3 0x2E86 DUP4 CODECOPY DUP2 MLOAD SWAP2 MSTORE CALLER SWAP4 DUP1 LOG4 PUSH1 0x1 SWAP1 JUMP JUMPDEST POP POP SWAP1 JUMP JUMPDEST PUSH1 0x1 PUSH1 0x1 PUSH1 0xA0 SHL SUB AND PUSH1 0x0 DUP2 DUP2 MSTORE PUSH32 0xF9C002F57BB53B4D861AE1EF1369A8087D06C8210E4846F897918D0E534663CE PUSH1 0x20 MSTORE PUSH1 0x40 DUP2 KECCAK256 SLOAD SWAP1 SWAP2 SWAP1 PUSH32 0x114E74F6EA3BD819998F78687BFCB11B140DA08E9B7D222FA9C1F1BA1F2AA122 SWAP1 PUSH1 0xFF AND PUSH3 0x171 JUMPI DUP1 DUP4 MSTORE DUP3 PUSH1 0x20 MSTORE PUSH1 0x40 DUP4 KECCAK256 DUP3 DUP5 MSTORE PUSH1 0x20 MSTORE PUSH1 0x40 DUP4 KECCAK256 PUSH1 0x1 PUSH1 0xFF NOT DUP3 SLOAD AND OR SWAP1 SSTORE PUSH1 0x0 DUP1 MLOAD PUSH1 0x20 PUSH3 0x2E86 DUP4 CODECOPY DUP2 MLOAD SWAP2 MSTORE CALLER SWAP4 DUP1 LOG4 PUSH1 0x1 SWAP1 JUMP JUMPDEST PUSH1 0x1 PUSH1 0x1 PUSH1 0xA0 SHL SUB AND PUSH1 0x0 DUP2 DUP2 MSTORE PUSH32 0x1DA0B5176DFE03406AF5A6EED66CA01DDA9B45AC4DA671C3FA379CB93717EF81 PUSH1 0x20 MSTORE PUSH1 0x40 DUP2 KECCAK256 SLOAD SWAP1 SWAP2 SWAP1 PUSH32 0xCE23C3E399818CFEE81A7AB0880F714E53D7672B08DF0FA62F2843416E1EA09 SWAP1 PUSH1 0xFF AND PUSH3 0x171 JUMPI DUP1 DUP4 MSTORE DUP3 PUSH1 0x20 MSTORE PUSH1 0x40 DUP4 KECCAK256 DUP3 DUP5 MSTORE PUSH1 0x20 MSTORE PUSH1 0x40 DUP4 KECCAK256 PUSH1 0x1 PUSH1 0xFF NOT DUP3 SLOAD AND OR SWAP1 SSTORE PUSH1 0x0 DUP1 MLOAD PUSH1 0x20 PUSH3 0x2E86 DUP4 CODECOPY DUP2 MLOAD SWAP2 MSTORE CALLER SWAP4 DUP1 LOG4 PUSH1 0x1 SWAP1 JUMP INVALID PUSH1 0x80 DUP1 PUSH1 0x40 MSTORE PUSH1 0x4 CALLDATASIZE LT ISZERO PUSH2 0x13 JUMPI PUSH1 0x0 DUP1 REVERT JUMPDEST PUSH1 0x0 CALLDATALOAD PUSH1 0xE0 SHR SWAP1 DUP2 PUSH4 0x1FFC9A7 EQ PUSH2 0x21E8 JUMPI POP DUP1 PUSH4 0x59CE95D EQ PUSH2 0x2121 JUMPI DUP1 PUSH4 0x16CB4218 EQ PUSH2 0x1EA0 JUMPI DUP1 PUSH4 0x1ABAC44B EQ PUSH2 0x1E48 JUMPI DUP1 PUSH4 0x248A9CA3 EQ PUSH2 0x1E19 JUMPI DUP1 PUSH4 0x249B92A0 EQ PUSH2 0x1DE8 JUMPI DUP1 PUSH4 0x299D0348 EQ PUSH2 0x1D17 JUMPI DUP1 PUSH4 0x2F2FF15D EQ PUSH2 0x1CD8 JUMPI DUP1 PUSH4 0x33105218 EQ PUSH2 0x1C5C JUMPI DUP1 PUSH4 0x36568ABE EQ PUSH2 0x1C15 JUMPI DUP1 PUSH4 0x38A7543E EQ PUSH2 0x1B74 JUMPI DUP1 PUSH4 0x38B90333 EQ PUSH2 0x1B2E JUMPI DUP1 PUSH4 0x3F4BA83A EQ PUSH2 0x1AA3 JUMPI DUP1 PUSH4 0x47BC7093 EQ PUSH2 0x1988 JUMPI DUP1 PUSH4 0x493814B5 EQ PUSH2 0x1668 JUMPI DUP1 PUSH4 0x4DBF87CC EQ PUSH2 0x1624 JUMPI DUP1 PUSH4 0x595D8FAA EQ PUSH2 0xE55 JUMPI DUP1 PUSH4 0x5C975ABB EQ PUSH2 0xE32 JUMPI DUP1 PUSH4 0x614D08F8 EQ PUSH2 0xDD4 JUMPI DUP1 PUSH4 0x6C824487 EQ PUSH2 0xD5A JUMPI DUP1 PUSH4 0x75B238FC EQ PUSH2 0xD31 JUMPI DUP1 PUSH4 0x76B22EAC EQ PUSH2 0xCF2 JUMPI DUP1 PUSH4 0x82AEFA24 EQ PUSH2 0xCB7 JUMPI DUP1 PUSH4 0x8456CB59 EQ PUSH2 0xC3D JUMPI DUP1 PUSH4 0x877B9A67 EQ PUSH2 0xBD2 JUMPI DUP1 PUSH4 0x91D14854 EQ PUSH2 0xB85 JUMPI DUP1 PUSH4 0xA217FDDF EQ PUSH2 0xB69 JUMPI DUP1 PUSH4 0xAD1329D1 EQ PUSH2 0xB1D JUMPI DUP1 PUSH4 0xC7F13FF5 EQ PUSH2 0x6AF JUMPI DUP1 PUSH4 0xCA2DFD0A EQ PUSH2 0x583 JUMPI DUP1 PUSH4 0xD1BE4883 EQ PUSH2 0x40F JUMPI DUP1 PUSH4 0xD547741F EQ PUSH2 0x3CE JUMPI DUP1 PUSH4 0xD8202FFB EQ PUSH2 0x31A JUMPI DUP1 PUSH4 0xDFE6B5D6 EQ PUSH2 0x2EB JUMPI DUP1 PUSH4 0xE7705DB6 EQ PUSH2 0x2C2 JUMPI PUSH4 0xFEF03DA3 EQ PUSH2 0x1AB JUMPI PUSH1 0x0 DUP1 REVERT JUMPDEST CALLVALUE PUSH2 0x2BD JUMPI PUSH1 0x20 DUP1 PUSH1 0x3 NOT CALLDATASIZE ADD SLT PUSH2 0x2BD JUMPI PUSH1 0xC0 SWAP1 PUSH2 0x1C8 PUSH2 0x223B JUMP JUMPDEST PUSH1 0x0 PUSH1 0xA0 PUSH1 0x40 MLOAD PUSH2 0x1D8 DUP2 PUSH2 0x22DE JUMP JUMPDEST PUSH1 0x60 DUP2 MSTORE PUSH1 0x60 DUP6 DUP3 ADD MSTORE DUP3 PUSH1 0x40 DUP3 ADD MSTORE DUP3 PUSH1 0x60 DUP3 ADD MSTORE DUP3 PUSH1 0x80 DUP3 ADD MSTORE ADD MSTORE PUSH1 0x1 DUP1 PUSH1 0xA0 SHL SUB AND PUSH1 0x0 MSTORE PUSH1 0x7 DUP2 MSTORE PUSH1 0x40 PUSH1 0x0 KECCAK256 PUSH1 0x40 MLOAD SWAP2 PUSH2 0x217 DUP4 PUSH2 0x22DE JUMP JUMPDEST PUSH2 0x220 DUP3 PUSH2 0x23F3 JUMP JUMPDEST DUP4 MSTORE PUSH2 0x22E PUSH1 0x1 DUP4 ADD PUSH2 0x23F3 JUMP JUMPDEST SWAP2 DUP2 DUP5 ADD SWAP3 DUP4 MSTORE PUSH1 0xFF PUSH1 0x2 DUP3 ADD SLOAD AND SWAP3 PUSH1 0x40 DUP6 ADD SWAP4 ISZERO ISZERO DUP5 MSTORE PUSH2 0x29E PUSH1 0x3 DUP4 ADD SLOAD SWAP2 PUSH1 0x60 DUP8 ADD SWAP3 DUP4 MSTORE PUSH2 0x28B PUSH1 0x5 PUSH1 0x4 DUP7 ADD SLOAD SWAP6 PUSH1 0x80 DUP11 ADD SWAP7 DUP8 MSTORE ADD SLOAD SWAP6 PUSH1 0xA0 DUP10 ADD SWAP7 DUP8 MSTORE PUSH1 0x40 MLOAD SWAP10 DUP11 SWAP10 DUP3 DUP12 MSTORE MLOAD SWAP2 DUP11 ADD MSTORE PUSH1 0xE0 DUP10 ADD SWAP1 PUSH2 0x2267 JUMP JUMPDEST SWAP1 MLOAD DUP8 DUP3 SUB PUSH1 0x1F NOT ADD PUSH1 0x40 DUP10 ADD MSTORE PUSH2 0x2267 JUMP JUMPDEST SWAP4 MLOAD ISZERO ISZERO PUSH1 0x60 DUP7 ADD MSTORE MLOAD PUSH1 0x80 DUP6 ADD MSTORE MLOAD PUSH1 0xA0 DUP5 ADD MSTORE MLOAD PUSH1 0xC0 DUP4 ADD MSTORE SUB SWAP1 RETURN JUMPDEST PUSH1 0x0 DUP1 REVERT JUMPDEST CALLVALUE PUSH2 0x2BD JUMPI PUSH1 0x0 CALLDATASIZE PUSH1 0x3 NOT ADD SLT PUSH2 0x2BD JUMPI PUSH1 0x20 PUSH1 0x40 MLOAD PUSH1 0x0 DUP1 MLOAD PUSH1 0x20 PUSH2 0x2B80 DUP4 CODECOPY DUP2 MLOAD SWAP2 MSTORE DUP2 MSTORE RETURN JUMPDEST CALLVALUE PUSH2 0x2BD JUMPI PUSH1 0x0 CALLDATASIZE PUSH1 0x3 NOT ADD SLT PUSH2 0x2BD JUMPI PUSH1 0x60 PUSH1 0x3 SLOAD PUSH1 0x4 SLOAD PUSH1 0x5 SLOAD SWAP1 PUSH1 0x40 MLOAD SWAP3 DUP4 MSTORE PUSH1 0x20 DUP4 ADD MSTORE PUSH1 0x40 DUP3 ADD MSTORE RETURN JUMPDEST CALLVALUE PUSH2 0x2BD JUMPI PUSH1 0x20 DUP1 PUSH1 0x3 NOT CALLDATASIZE ADD SLT PUSH2 0x2BD JUMPI PUSH1 0x1 PUSH1 0x1 PUSH1 0xA0 SHL SUB PUSH2 0x33C PUSH2 0x223B JUMP JUMPDEST AND PUSH1 0x0 MSTORE PUSH1 0xA DUP2 MSTORE PUSH1 0x40 PUSH1 0x0 KECCAK256 PUSH1 0x40 MLOAD SWAP1 DUP2 DUP4 DUP3 SLOAD SWAP2 DUP3 DUP2 MSTORE ADD SWAP1 DUP2 SWAP3 PUSH1 0x0 MSTORE DUP5 PUSH1 0x0 KECCAK256 SWAP1 PUSH1 0x0 JUMPDEST DUP7 DUP3 DUP3 LT PUSH2 0x3BA JUMPI DUP7 DUP7 PUSH2 0x37A DUP3 DUP9 SUB DUP4 PUSH2 0x2314 JUMP JUMPDEST PUSH1 0x40 MLOAD SWAP3 DUP4 SWAP3 DUP2 DUP5 ADD SWAP1 DUP3 DUP6 MSTORE MLOAD DUP1 SWAP2 MSTORE PUSH1 0x40 DUP5 ADD SWAP3 SWAP2 PUSH1 0x0 JUMPDEST DUP3 DUP2 LT PUSH2 0x3A3 JUMPI POP POP POP POP SUB SWAP1 RETURN JUMPDEST DUP4 MLOAD DUP6 MSTORE DUP7 SWAP6 POP SWAP4 DUP2 ADD SWAP4 SWAP3 DUP2 ADD SWAP3 PUSH1 0x1 ADD PUSH2 0x394 JUMP JUMPDEST DUP4 SLOAD DUP6 MSTORE SWAP1 SWAP4 ADD SWAP3 PUSH1 0x1 SWAP3 DUP4 ADD SWAP3 ADD PUSH2 0x364 JUMP JUMPDEST CALLVALUE PUSH2 0x2BD JUMPI PUSH1 0x40 CALLDATASIZE PUSH1 0x3 NOT ADD SLT PUSH2 0x2BD JUMPI PUSH2 0x40D PUSH1 0x4 CALLDATALOAD PUSH2 0x3ED PUSH2 0x2251 JUMP JUMPDEST SWAP1 DUP1 PUSH1 0x0 MSTORE PUSH1 0x0 PUSH1 0x20 MSTORE PUSH2 0x408 PUSH1 0x1 PUSH1 0x40 PUSH1 0x0 KECCAK256 ADD SLOAD PUSH2 0x2499 JUMP JUMPDEST PUSH2 0x27C3 JUMP JUMPDEST STOP JUMPDEST CALLVALUE PUSH2 0x2BD JUMPI PUSH1 0x20 DUP1 PUSH1 0x3 NOT CALLDATASIZE ADD SLT PUSH2 0x2BD JUMPI PUSH1 0xE0 SWAP1 PUSH1 0x40 MLOAD PUSH2 0x430 DUP2 PUSH2 0x22C2 JUMP JUMPDEST PUSH1 0x0 DUP2 MSTORE PUSH1 0x0 DUP3 DUP3 ADD MSTORE PUSH1 0x0 PUSH1 0x40 DUP3 ADD MSTORE PUSH1 0x60 SWAP3 DUP2 PUSH1 0x0 DUP6 DUP1 SWAP5 ADD MSTORE DUP3 PUSH1 0x80 DUP3 ADD MSTORE DUP3 PUSH1 0xA0 DUP3 ADD MSTORE DUP3 PUSH1 0xC0 DUP3 ADD MSTORE ADD MSTORE PUSH1 0x4 CALLDATALOAD PUSH1 0x0 MSTORE PUSH1 0x6 DUP2 MSTORE PUSH2 0x57F PUSH1 0x40 PUSH1 0x0 KECCAK256 SWAP3 PUSH1 0x40 MLOAD SWAP4 PUSH2 0x480 DUP6 PUSH2 0x22C2 JUMP JUMPDEST DUP1 SLOAD DUP6 MSTORE DUP5 PUSH2 0x56F PUSH1 0x1 DUP1 PUSH1 0xA0 SHL SUB DUP1 PUSH1 0x1 DUP6 ADD SLOAD AND SWAP5 DUP8 DUP5 ADD SWAP6 DUP7 MSTORE PUSH1 0x2 DUP6 ADD SLOAD SWAP1 PUSH1 0x40 DUP6 ADD SWAP2 DUP3 MSTORE PUSH1 0xFF PUSH1 0x3 DUP8 ADD SLOAD AND SWAP2 DUP2 DUP7 ADD SWAP3 ISZERO ISZERO DUP4 MSTORE PUSH2 0x4C7 PUSH1 0x4 DUP9 ADD PUSH2 0x23F3 JUMP JUMPDEST SWAP4 PUSH1 0x80 DUP8 ADD SWAP5 DUP6 MSTORE PUSH2 0x501 PUSH1 0x7 PUSH2 0x4E0 PUSH1 0x5 DUP12 ADD PUSH2 0x23F3 JUMP JUMPDEST SWAP10 PUSH1 0xA0 DUP11 ADD SWAP11 DUP12 MSTORE PUSH1 0xC0 PUSH2 0x4F6 PUSH1 0x6 DUP4 ADD PUSH2 0x23F3 JUMP JUMPDEST SWAP11 ADD SWAP10 DUP11 MSTORE ADD PUSH2 0x23F3 JUMP JUMPDEST SWAP9 PUSH1 0xE0 DUP14 ADD SWAP10 DUP11 MSTORE DUP12 PUSH1 0x40 MLOAD SWAP14 DUP15 SWAP14 DUP15 MSTORE MLOAD SWAP1 DUP14 ADD MSTORE MLOAD AND PUSH1 0x40 DUP12 ADD MSTORE MLOAD SWAP1 DUP10 ADD MSTORE MLOAD ISZERO ISZERO PUSH1 0x80 DUP9 ADD MSTORE MLOAD SWAP2 PUSH2 0x55E PUSH2 0x548 PUSH2 0x100 SWAP5 DUP6 PUSH1 0xA0 DUP12 ADD MSTORE PUSH2 0x120 DUP11 ADD SWAP1 PUSH2 0x2267 JUMP JUMPDEST SWAP5 MLOAD SWAP5 PUSH1 0x1F NOT SWAP6 DUP7 DUP11 DUP4 SUB ADD PUSH1 0xC0 DUP12 ADD MSTORE PUSH2 0x2267 JUMP JUMPDEST SWAP1 MLOAD DUP5 DUP9 DUP4 SUB ADD PUSH1 0xE0 DUP10 ADD MSTORE PUSH2 0x2267 JUMP JUMPDEST SWAP3 MLOAD SWAP2 DUP6 DUP5 SUB ADD SWAP1 DUP6 ADD MSTORE PUSH2 0x2267 JUMP JUMPDEST SUB SWAP1 RETURN JUMPDEST CALLVALUE PUSH2 0x2BD JUMPI PUSH1 0x20 DUP1 PUSH1 0x3 NOT CALLDATASIZE ADD SLT PUSH2 0x2BD JUMPI PUSH2 0x59D PUSH2 0x223B JUMP JUMPDEST SWAP1 PUSH1 0x0 DUP1 MLOAD PUSH1 0x20 PUSH2 0x2B60 DUP4 CODECOPY DUP2 MLOAD SWAP2 MSTORE PUSH1 0x0 MSTORE PUSH1 0x0 DUP2 MSTORE PUSH1 0x40 PUSH1 0x0 KECCAK256 CALLER PUSH1 0x0 MSTORE DUP2 MSTORE PUSH2 0x5D0 PUSH1 0xFF PUSH1 0x40 PUSH1 0x0 KECCAK256 SLOAD AND PUSH2 0x2A23 JUMP JUMPDEST PUSH2 0x5D8 PUSH2 0x2908 JUMP JUMPDEST PUSH2 0x5E0 PUSH2 0x28EA JUMP JUMPDEST PUSH1 0x1 PUSH1 0x1 PUSH1 0xA0 SHL SUB DUP3 AND PUSH1 0x0 DUP2 DUP2 MSTORE PUSH1 0x8 DUP4 MSTORE PUSH1 0x40 SWAP1 KECCAK256 PUSH1 0x1 ADD SLOAD SWAP1 SWAP3 SWAP1 PUSH1 0xFF AND ISZERO PUSH2 0x658 JUMPI SWAP1 PUSH2 0x649 PUSH32 0x577461BDE9FD030EB8B2941145223AF9676A2DFAE0F7C7D2456D7BE21573A118 SWAP3 DUP5 PUSH1 0x0 MSTORE PUSH1 0x8 DUP4 MSTORE PUSH1 0x1 PUSH1 0x40 PUSH1 0x0 KECCAK256 ADD PUSH1 0xFF NOT DUP2 SLOAD AND SWAP1 SSTORE PUSH2 0x272A JUMP JUMPDEST POP PUSH1 0x40 MLOAD TIMESTAMP DUP2 MSTORE LOG2 PUSH1 0x1 PUSH1 0x2 SSTORE STOP JUMPDEST PUSH1 0x40 MLOAD PUSH3 0x461BCD PUSH1 0xE5 SHL DUP2 MSTORE PUSH1 0x4 DUP2 ADD DUP4 SWAP1 MSTORE PUSH1 0x29 PUSH1 0x24 DUP3 ADD MSTORE PUSH32 0x4372656456657273653A205665726966696572206E6F7420666F756E64206F72 PUSH1 0x44 DUP3 ADD MSTORE PUSH9 0x20696E616374697665 PUSH1 0xB8 SHL PUSH1 0x64 DUP3 ADD MSTORE PUSH1 0x84 SWAP1 REVERT JUMPDEST CALLVALUE PUSH2 0x2BD JUMPI PUSH1 0x40 CALLDATASIZE PUSH1 0x3 NOT ADD SLT PUSH2 0x2BD JUMPI PUSH1 0x4 CALLDATALOAD PUSH1 0x1 PUSH1 0x1 PUSH1 0x40 SHL SUB DUP2 GT PUSH2 0x2BD JUMPI PUSH2 0x6DF SWAP1 CALLDATASIZE SWAP1 PUSH1 0x4 ADD PUSH2 0x2335 JUMP JUMPDEST PUSH1 0x24 CALLDATALOAD PUSH1 0x1 PUSH1 0x1 PUSH1 0x40 SHL SUB DUP2 GT PUSH2 0x2BD JUMPI PUSH2 0x6FE SWAP1 CALLDATASIZE SWAP1 PUSH1 0x4 ADD PUSH2 0x2335 JUMP JUMPDEST CALLER PUSH1 0x0 SWAP1 DUP2 MSTORE PUSH1 0x0 DUP1 MLOAD PUSH1 0x20 PUSH2 0x2B20 DUP4 CODECOPY DUP2 MLOAD SWAP2 MSTORE PUSH1 0x20 MSTORE PUSH1 0x40 SWAP1 KECCAK256 SLOAD PUSH2 0x727 SWAP1 PUSH1 0xFF AND PUSH2 0x2A23 JUMP JUMPDEST PUSH2 0x72F PUSH2 0x2908 JUMP JUMPDEST PUSH2 0x737 PUSH2 0x28EA JUMP JUMPDEST DUP2 MLOAD ISZERO PUSH2 0xADF JUMPI PUSH2 0x74A DUP2 MLOAD ISZERO ISZERO PUSH2 0x2A79 JUMP JUMPDEST CALLER PUSH1 0x0 MSTORE PUSH1 0x9 PUSH1 0x20 MSTORE PUSH2 0x765 PUSH1 0xFF PUSH1 0x40 PUSH1 0x0 KECCAK256 SLOAD AND ISZERO PUSH2 0x2AC5 JUMP JUMPDEST PUSH1 0x40 MLOAD PUSH2 0x771 DUP2 PUSH2 0x22DE JUMP JUMPDEST DUP3 DUP2 MSTORE DUP2 PUSH1 0x20 DUP3 ADD MSTORE PUSH1 0x1 PUSH1 0x40 DUP3 ADD MSTORE TIMESTAMP PUSH1 0x60 DUP3 ADD MSTORE PUSH1 0x0 PUSH1 0x80 DUP3 ADD MSTORE PUSH1 0x0 PUSH1 0xA0 DUP3 ADD MSTORE CALLER PUSH1 0x0 MSTORE PUSH1 0x7 PUSH1 0x20 MSTORE PUSH1 0x40 PUSH1 0x0 KECCAK256 SWAP1 DUP1 MLOAD DUP1 MLOAD SWAP1 PUSH1 0x1 PUSH1 0x1 PUSH1 0x40 SHL SUB DUP3 GT PUSH2 0xA02 JUMPI DUP2 SWAP1 PUSH2 0x7C3 DUP6 SLOAD PUSH2 0x23B9 JUMP JUMPDEST PUSH1 0x1F DUP2 GT PUSH2 0xA8F JUMPI JUMPDEST POP PUSH1 0x20 SWAP1 PUSH1 0x1F DUP4 GT PUSH1 0x1 EQ PUSH2 0xA23 JUMPI PUSH1 0x0 SWAP3 PUSH2 0xA18 JUMPI JUMPDEST POP POP DUP2 PUSH1 0x1 SHL SWAP2 PUSH1 0x0 NOT SWAP1 PUSH1 0x3 SHL SHR NOT AND OR DUP3 SSTORE JUMPDEST PUSH1 0x20 DUP2 ADD MLOAD DUP1 MLOAD SWAP1 PUSH1 0x1 PUSH1 0x1 PUSH1 0x40 SHL SUB DUP3 GT PUSH2 0xA02 JUMPI PUSH2 0x81B PUSH1 0x1 DUP6 ADD SLOAD PUSH2 0x23B9 JUMP JUMPDEST PUSH1 0x1F DUP2 GT PUSH2 0x9BB JUMPI JUMPDEST POP PUSH1 0x20 SWAP1 PUSH1 0x1F DUP4 GT PUSH1 0x1 EQ PUSH2 0x946 JUMPI SWAP2 DUP1 PUSH1 0x5 SWAP5 SWAP3 PUSH1 0xA0 SWAP5 PUSH1 0x0 SWAP3 PUSH2 0x93B JUMPI JUMPDEST POP POP DUP2 PUSH1 0x1 SHL SWAP2 PUSH1 0x0 NOT SWAP1 PUSH1 0x3 SHL SHR NOT AND OR PUSH1 0x1 DUP6 ADD SSTORE JUMPDEST PUSH2 0x87B PUSH1 0x40 DUP3 ADD MLOAD ISZERO ISZERO PUSH1 0x2 DUP7 ADD SWAP1 PUSH1 0xFF DUP1 NOT DUP4 SLOAD AND SWAP2 ISZERO ISZERO AND OR SWAP1 SSTORE JUMP JUMPDEST PUSH1 0x60 DUP2 ADD MLOAD PUSH1 0x3 DUP6 ADD SSTORE PUSH1 0x80 DUP2 ADD MLOAD PUSH1 0x4 DUP6 ADD SSTORE ADD MLOAD SWAP2 ADD SSTORE CALLER PUSH1 0x0 MSTORE PUSH1 0x9 PUSH1 0x20 MSTORE PUSH1 0x40 PUSH1 0x0 KECCAK256 PUSH1 0x1 PUSH1 0xFF NOT DUP3 SLOAD AND OR SWAP1 SSTORE PUSH2 0x8B6 CALLER PUSH2 0x257D JUMP JUMPDEST POP PUSH1 0x4 SLOAD PUSH1 0x1 DUP2 ADD DUP1 SWAP2 GT PUSH2 0x925 JUMPI PUSH32 0xB90FAB3F509B58E3F490DAE1E5C582E8FDE219064C5B98889D1A22F99FD38E84 SWAP2 PUSH2 0x911 SWAP2 PUSH1 0x4 SSTORE PUSH2 0x903 PUSH1 0x40 MLOAD SWAP5 PUSH1 0x60 DUP7 MSTORE PUSH1 0x60 DUP7 ADD SWAP1 PUSH2 0x2267 JUMP JUMPDEST SWAP1 DUP5 DUP3 SUB PUSH1 0x20 DUP7 ADD MSTORE PUSH2 0x2267 JUMP JUMPDEST SWAP2 TIMESTAMP PUSH1 0x40 DUP3 ADD MSTORE DUP1 CALLER SWAP4 SUB SWAP1 LOG2 PUSH1 0x1 PUSH1 0x2 SSTORE STOP JUMPDEST PUSH4 0x4E487B71 PUSH1 0xE0 SHL PUSH1 0x0 MSTORE PUSH1 0x11 PUSH1 0x4 MSTORE PUSH1 0x24 PUSH1 0x0 REVERT JUMPDEST ADD MLOAD SWAP1 POP DUP9 DUP1 PUSH2 0x844 JUMP JUMPDEST SWAP1 PUSH1 0x1 DUP6 ADD PUSH1 0x0 MSTORE PUSH1 0x20 PUSH1 0x0 KECCAK256 SWAP2 PUSH1 0x0 JUMPDEST PUSH1 0x1F NOT DUP6 AND DUP2 LT PUSH2 0x9A3 JUMPI POP SWAP3 PUSH1 0x5 SWAP5 SWAP3 PUSH1 0x1 SWAP3 PUSH1 0xA0 SWAP6 DUP4 PUSH1 0x1F NOT DUP2 AND LT PUSH2 0x98A JUMPI JUMPDEST POP POP POP DUP2 SHL ADD PUSH1 0x1 DUP6 ADD SSTORE PUSH2 0x85C JUMP JUMPDEST ADD MLOAD PUSH1 0x0 NOT PUSH1 0xF8 DUP5 PUSH1 0x3 SHL AND SHR NOT AND SWAP1 SSTORE DUP9 DUP1 DUP1 PUSH2 0x97A JUMP JUMPDEST SWAP2 SWAP3 PUSH1 0x20 PUSH1 0x1 DUP2 SWAP3 DUP7 DUP6 ADD MLOAD DUP2 SSTORE ADD SWAP5 ADD SWAP3 ADD PUSH2 0x957 JUMP JUMPDEST PUSH1 0x1 DUP6 ADD PUSH1 0x0 MSTORE PUSH1 0x20 PUSH1 0x0 KECCAK256 PUSH1 0x1F DUP5 ADD PUSH1 0x5 SHR DUP2 ADD PUSH1 0x20 DUP6 LT PUSH2 0x9FB JUMPI JUMPDEST PUSH1 0x1F DUP4 ADD PUSH1 0x5 SHR DUP3 ADD DUP2 LT PUSH2 0x9EF JUMPI POP POP PUSH2 0x824 JUMP JUMPDEST PUSH1 0x0 DUP2 SSTORE PUSH1 0x1 ADD PUSH2 0x9D9 JUMP JUMPDEST POP DUP1 PUSH2 0x9D9 JUMP JUMPDEST PUSH4 0x4E487B71 PUSH1 0xE0 SHL PUSH1 0x0 MSTORE PUSH1 0x41 PUSH1 0x4 MSTORE PUSH1 0x24 PUSH1 0x0 REVERT JUMPDEST ADD MLOAD SWAP1 POP DUP7 DUP1 PUSH2 0x7E3 JUMP JUMPDEST SWAP3 POP DUP5 PUSH1 0x0 MSTORE PUSH1 0x20 PUSH1 0x0 KECCAK256 SWAP1 PUSH1 0x0 SWAP4 JUMPDEST PUSH1 0x1F NOT DUP5 AND DUP6 LT PUSH2 0xA74 JUMPI PUSH1 0x1 SWAP5 POP DUP4 PUSH1 0x1F NOT DUP2 AND LT PUSH2 0xA5B JUMPI JUMPDEST POP POP POP DUP2 SHL ADD DUP3 SSTORE PUSH2 0x7F8 JUMP JUMPDEST ADD MLOAD PUSH1 0x0 NOT PUSH1 0xF8 DUP5 PUSH1 0x3 SHL AND SHR NOT AND SWAP1 SSTORE DUP7 DUP1 DUP1 PUSH2 0xA4E JUMP JUMPDEST DUP2 DUP2 ADD MLOAD DUP4 SSTORE PUSH1 0x20 SWAP5 DUP6 ADD SWAP5 PUSH1 0x1 SWAP1 SWAP4 ADD SWAP3 SWAP1 SWAP2 ADD SWAP1 PUSH2 0xA33 JUMP JUMPDEST SWAP1 SWAP2 POP DUP5 PUSH1 0x0 MSTORE PUSH1 0x20 PUSH1 0x0 KECCAK256 PUSH1 0x1F DUP5 ADD PUSH1 0x5 SHR DUP2 ADD PUSH1 0x20 DUP6 LT PUSH2 0xAD8 JUMPI JUMPDEST SWAP1 DUP5 SWAP4 SWAP3 SWAP2 JUMPDEST PUSH1 0x1F DUP4 ADD PUSH1 0x5 SHR DUP3 ADD DUP2 LT PUSH2 0xAC9 JUMPI POP POP PUSH2 0x7CC JUMP JUMPDEST PUSH1 0x0 DUP2 SSTORE DUP6 SWAP5 POP PUSH1 0x1 ADD PUSH2 0xAB3 JUMP JUMPDEST POP DUP1 PUSH2 0xAAD JUMP JUMPDEST PUSH1 0x40 MLOAD PUSH3 0x461BCD PUSH1 0xE5 SHL DUP2 MSTORE PUSH1 0x20 PUSH1 0x4 DUP3 ADD MSTORE PUSH1 0x16 PUSH1 0x24 DUP3 ADD MSTORE PUSH22 0x10DC995915995C9CD94E88125B9D985B1A5908111251 PUSH1 0x52 SHL PUSH1 0x44 DUP3 ADD MSTORE PUSH1 0x64 SWAP1 REVERT JUMPDEST CALLVALUE PUSH2 0x2BD JUMPI PUSH1 0x60 CALLDATASIZE PUSH1 0x3 NOT ADD SLT PUSH2 0x2BD JUMPI PUSH2 0xB36 PUSH2 0x223B JUMP JUMPDEST POP PUSH2 0xB3F PUSH2 0x2251 JUMP JUMPDEST POP CALLER PUSH1 0x0 SWAP1 DUP2 MSTORE PUSH1 0x0 DUP1 MLOAD PUSH1 0x20 PUSH2 0x2B20 DUP4 CODECOPY DUP2 MLOAD SWAP2 MSTORE PUSH1 0x20 MSTORE PUSH1 0x40 SWAP1 KECCAK256 SLOAD PUSH2 0x40D SWAP1 PUSH1 0xFF AND PUSH2 0x2A23 JUMP JUMPDEST CALLVALUE PUSH2 0x2BD JUMPI PUSH1 0x0 CALLDATASIZE PUSH1 0x3 NOT ADD SLT PUSH2 0x2BD JUMPI PUSH1 0x20 PUSH1 0x40 MLOAD PUSH1 0x0 DUP2 MSTORE RETURN JUMPDEST CALLVALUE PUSH2 0x2BD JUMPI PUSH1 0x40 CALLDATASIZE PUSH1 0x3 NOT ADD SLT PUSH2 0x2BD JUMPI PUSH2 0xB9E PUSH2 0x2251 JUMP JUMPDEST PUSH1 0x4 CALLDATALOAD PUSH1 0x0 MSTORE PUSH1 0x0 PUSH1 0x20 MSTORE PUSH1 0x40 PUSH1 0x0 KECCAK256 SWAP1 PUSH1 0x1 DUP1 PUSH1 0xA0 SHL SUB AND PUSH1 0x0 MSTORE PUSH1 0x20 MSTORE PUSH1 0x20 PUSH1 0xFF PUSH1 0x40 PUSH1 0x0 KECCAK256 SLOAD AND PUSH1 0x40 MLOAD SWAP1 ISZERO ISZERO DUP2 MSTORE RETURN JUMPDEST CALLVALUE PUSH2 0x2BD JUMPI PUSH1 0x20 CALLDATASIZE PUSH1 0x3 NOT ADD SLT PUSH2 0x2BD JUMPI PUSH2 0xBEB PUSH2 0x223B JUMP JUMPDEST PUSH1 0x1 PUSH1 0x1 PUSH1 0xA0 SHL SUB AND PUSH1 0x0 SWAP1 DUP2 MSTORE PUSH1 0x0 DUP1 MLOAD PUSH1 0x20 PUSH2 0x2B40 DUP4 CODECOPY DUP2 MLOAD SWAP2 MSTORE PUSH1 0x20 MSTORE PUSH1 0x40 SWAP1 KECCAK256 SLOAD PUSH1 0xFF AND DUP1 PUSH2 0xC26 JUMPI JUMPDEST PUSH1 0x20 SWAP1 PUSH1 0x40 MLOAD SWAP1 ISZERO ISZERO DUP2 MSTORE RETURN JUMPDEST POP PUSH1 0x7 PUSH1 0x20 MSTORE PUSH1 0x40 PUSH1 0x0 KECCAK256 PUSH1 0x2 ADD SLOAD PUSH1 0xFF AND PUSH2 0xC19 JUMP JUMPDEST CALLVALUE PUSH2 0x2BD JUMPI PUSH1 0x0 CALLDATASIZE PUSH1 0x3 NOT ADD SLT PUSH2 0x2BD JUMPI CALLER PUSH1 0x0 SWAP1 DUP2 MSTORE PUSH1 0x0 DUP1 MLOAD PUSH1 0x20 PUSH2 0x2B20 DUP4 CODECOPY DUP2 MLOAD SWAP2 MSTORE PUSH1 0x20 MSTORE PUSH1 0x40 SWAP1 KECCAK256 SLOAD PUSH2 0xC77 SWAP1 PUSH1 0xFF AND PUSH2 0x2A23 JUMP JUMPDEST PUSH2 0xC7F PUSH2 0x28EA JUMP JUMPDEST PUSH1 0x1 PUSH1 0xFF NOT DUP2 SLOAD AND OR PUSH1 0x1 SSTORE PUSH32 0x62E78CEA01BEE320CD4E420270B5EA74000D11B0C9F74754EBDBFC544B05A258 PUSH1 0x20 PUSH1 0x40 MLOAD CALLER DUP2 MSTORE LOG1 STOP JUMPDEST CALLVALUE PUSH2 0x2BD JUMPI PUSH1 0x0 CALLDATASIZE PUSH1 0x3 NOT ADD SLT PUSH2 0x2BD JUMPI PUSH1 0x20 PUSH1 0x40 MLOAD PUSH32 0x114E74F6EA3BD819998F78687BFCB11B140DA08E9B7D222FA9C1F1BA1F2AA122 DUP2 MSTORE RETURN JUMPDEST CALLVALUE PUSH2 0x2BD JUMPI PUSH1 0x20 CALLDATASIZE PUSH1 0x3 NOT ADD SLT PUSH2 0x2BD JUMPI PUSH1 0x1 PUSH1 0x1 PUSH1 0xA0 SHL SUB PUSH2 0xD13 PUSH2 0x223B JUMP JUMPDEST AND PUSH1 0x0 MSTORE PUSH1 0x9 PUSH1 0x20 MSTORE PUSH1 0x20 PUSH1 0xFF PUSH1 0x40 PUSH1 0x0 KECCAK256 SLOAD AND PUSH1 0x40 MLOAD SWAP1 ISZERO ISZERO DUP2 MSTORE RETURN JUMPDEST CALLVALUE PUSH2 0x2BD JUMPI PUSH1 0x0 CALLDATASIZE PUSH1 0x3 NOT ADD SLT PUSH2 0x2BD JUMPI PUSH1 0x20 PUSH1 0x40 MLOAD PUSH1 0x0 DUP1 MLOAD PUSH1 0x20 PUSH2 0x2B60 DUP4 CODECOPY DUP2 MLOAD SWAP2 MSTORE DUP2 MSTORE RETURN JUMPDEST CALLVALUE PUSH2 0x2BD JUMPI PUSH1 0x20 CALLDATASIZE PUSH1 0x3 NOT ADD SLT PUSH2 0x2BD JUMPI PUSH1 0x1 PUSH1 0x1 PUSH1 0xA0 SHL SUB PUSH2 0xD7B PUSH2 0x223B JUMP JUMPDEST AND PUSH1 0x0 MSTORE PUSH1 0x8 PUSH1 0x20 MSTORE PUSH2 0xDBE PUSH1 0x40 PUSH1 0x0 KECCAK256 PUSH2 0xD95 DUP2 PUSH2 0x23F3 JUMP JUMPDEST SWAP1 PUSH1 0xFF PUSH1 0x1 DUP3 ADD SLOAD AND SWAP1 PUSH1 0x3 PUSH1 0x2 DUP3 ADD SLOAD SWAP2 ADD SLOAD SWAP1 PUSH1 0x40 MLOAD SWAP5 DUP6 SWAP5 PUSH1 0x80 DUP7 MSTORE PUSH1 0x80 DUP7 ADD SWAP1 PUSH2 0x2267 JUMP JUMPDEST SWAP3 ISZERO ISZERO PUSH1 0x20 DUP6 ADD MSTORE PUSH1 0x40 DUP5 ADD MSTORE PUSH1 0x60 DUP4 ADD MSTORE SUB SWAP1 RETURN JUMPDEST CALLVALUE PUSH2 0x2BD JUMPI PUSH1 0x0 CALLDATASIZE PUSH1 0x3 NOT ADD SLT PUSH2 0x2BD JUMPI PUSH2 0x57F PUSH1 0x40 MLOAD PUSH2 0xDF4 DUP2 PUSH2 0x22F9 JUMP JUMPDEST PUSH1 0x1D DUP2 MSTORE PUSH32 0x4372656456657273652043726564656E7469616C205265676973747279000000 PUSH1 0x20 DUP3 ADD MSTORE PUSH1 0x40 MLOAD SWAP2 DUP3 SWAP2 PUSH1 0x20 DUP4 MSTORE PUSH1 0x20 DUP4 ADD SWAP1 PUSH2 0x2267 JUMP JUMPDEST CALLVALUE PUSH2 0x2BD JUMPI PUSH1 0x0 CALLDATASIZE PUSH1 0x3 NOT ADD SLT PUSH2 0x2BD JUMPI PUSH1 0x20 PUSH1 0xFF PUSH1 0x1 SLOAD AND PUSH1 0x40 MLOAD SWAP1 ISZERO ISZERO DUP2 MSTORE RETURN JUMPDEST CALLVALUE PUSH2 0x2BD JUMPI PUSH1 0x80 CALLDATASIZE PUSH1 0x3 NOT ADD SLT PUSH2 0x2BD JUMPI PUSH1 0x24 CALLDATALOAD PUSH1 0x1 PUSH1 0x1 PUSH1 0x40 SHL SUB DUP2 GT PUSH2 0x2BD JUMPI PUSH2 0xE85 SWAP1 CALLDATASIZE SWAP1 PUSH1 0x4 ADD PUSH2 0x2335 JUMP JUMPDEST PUSH1 0x44 CALLDATALOAD PUSH1 0x1 PUSH1 0x1 PUSH1 0x40 SHL SUB DUP2 GT PUSH2 0x2BD JUMPI PUSH2 0xEA4 SWAP1 CALLDATASIZE SWAP1 PUSH1 0x4 ADD PUSH2 0x2335 JUMP JUMPDEST PUSH1 0x64 CALLDATALOAD PUSH1 0x1 PUSH1 0x1 PUSH1 0x40 SHL SUB DUP2 GT PUSH2 0x2BD JUMPI PUSH2 0xEC3 SWAP1 CALLDATASIZE SWAP1 PUSH1 0x4 ADD PUSH2 0x2335 JUMP JUMPDEST CALLER PUSH1 0x0 SWAP1 DUP2 MSTORE PUSH1 0x0 DUP1 MLOAD PUSH1 0x20 PUSH2 0x2B40 DUP4 CODECOPY DUP2 MLOAD SWAP2 MSTORE PUSH1 0x20 MSTORE PUSH1 0x40 SWAP1 KECCAK256 SLOAD PUSH2 0xEEC SWAP1 PUSH1 0xFF AND PUSH2 0x2838 JUMP JUMPDEST CALLER PUSH1 0x0 MSTORE PUSH1 0x7 PUSH1 0x20 MSTORE PUSH2 0xF09 PUSH1 0xFF PUSH1 0x2 PUSH1 0x40 PUSH1 0x0 KECCAK256 ADD SLOAD AND PUSH2 0x288F JUMP JUMPDEST PUSH2 0xF11 PUSH2 0x2908 JUMP JUMPDEST PUSH2 0xF19 PUSH2 0x28EA JUMP JUMPDEST PUSH1 0x4 CALLDATALOAD ISZERO PUSH2 0x15D4 JUMPI DUP3 MLOAD ISZERO PUSH2 0x1590 JUMPI PUSH1 0x4 CALLDATALOAD PUSH1 0x0 MSTORE PUSH1 0x6 PUSH1 0x20 MSTORE PUSH1 0x40 PUSH1 0x0 KECCAK256 SLOAD PUSH2 0x153F JUMPI PUSH1 0x40 MLOAD SWAP1 PUSH2 0xF4A DUP3 PUSH2 0x22C2 JUMP JUMPDEST PUSH1 0x4 CALLDATALOAD DUP3 MSTORE PUSH1 0x20 DUP3 ADD SWAP3 CALLER DUP5 MSTORE PUSH1 0x40 DUP4 ADD TIMESTAMP DUP2 MSTORE PUSH1 0x60 DUP5 ADD SWAP1 PUSH1 0x0 DUP3 MSTORE PUSH1 0x40 MLOAD SWAP4 PUSH1 0x20 DUP6 ADD SWAP4 DUP6 DUP6 LT PUSH1 0x1 PUSH1 0x1 PUSH1 0x40 SHL SUB DUP7 GT OR PUSH2 0xA02 JUMPI PUSH2 0xFFC SWAP5 PUSH1 0x40 MSTORE PUSH1 0x0 DUP7 MSTORE PUSH1 0x80 DUP8 ADD SWAP6 DUP7 MSTORE DUP9 PUSH1 0xA0 DUP9 ADD MSTORE PUSH1 0xC0 DUP8 ADD MSTORE PUSH1 0xE0 DUP7 ADD MSTORE PUSH1 0x4 CALLDATALOAD PUSH1 0x0 MSTORE PUSH1 0x6 PUSH1 0x20 MSTORE PUSH1 0x40 PUSH1 0x0 KECCAK256 SWAP6 DUP6 MLOAD DUP8 SSTORE PUSH1 0x1 DUP8 ADD SWAP1 PUSH1 0x1 DUP1 PUSH1 0xA0 SHL SUB SWAP1 MLOAD AND PUSH12 0xFFFFFFFFFFFFFFFFFFFFFFFF PUSH1 0xA0 SHL DUP3 SLOAD AND OR SWAP1 SSTORE MLOAD PUSH1 0x2 DUP7 ADD SSTORE MLOAD ISZERO ISZERO PUSH1 0x3 DUP6 ADD SWAP1 PUSH1 0xFF DUP1 NOT DUP4 SLOAD AND SWAP2 ISZERO ISZERO AND OR SWAP1 SSTORE JUMP JUMPDEST MLOAD SWAP3 DUP4 MLOAD PUSH1 0x1 PUSH1 0x1 PUSH1 0x40 SHL SUB DUP2 GT PUSH2 0xA02 JUMPI PUSH2 0x101B PUSH1 0x4 DUP6 ADD SLOAD PUSH2 0x23B9 JUMP JUMPDEST PUSH1 0x1F DUP2 GT PUSH2 0x14F8 JUMPI JUMPDEST POP PUSH1 0x20 PUSH1 0x1F DUP3 GT PUSH1 0x1 EQ PUSH2 0x1489 JUMPI DUP2 SWAP3 SWAP4 SWAP5 SWAP6 PUSH1 0x0 SWAP3 PUSH2 0x147E JUMPI JUMPDEST POP POP DUP2 PUSH1 0x1 SHL SWAP2 PUSH1 0x0 NOT SWAP1 PUSH1 0x3 SHL SHR NOT AND OR PUSH1 0x4 DUP5 ADD SSTORE JUMPDEST PUSH1 0xA0 DUP3 ADD MLOAD SWAP3 DUP4 MLOAD PUSH1 0x1 PUSH1 0x1 PUSH1 0x40 SHL SUB DUP2 GT PUSH2 0xA02 JUMPI PUSH2 0x107A PUSH1 0x5 DUP4 ADD SLOAD PUSH2 0x23B9 JUMP JUMPDEST PUSH1 0x1F DUP2 GT PUSH2 0x1437 JUMPI JUMPDEST POP PUSH1 0x20 PUSH1 0x1F DUP3 GT PUSH1 0x1 EQ PUSH2 0x13C8 JUMPI DUP2 SWAP3 SWAP4 SWAP5 SWAP6 PUSH1 0x0 SWAP3 PUSH2 0x13BD JUMPI JUMPDEST POP POP DUP2 PUSH1 0x1 SHL SWAP2 PUSH1 0x0 NOT SWAP1 PUSH1 0x3 SHL SHR NOT AND OR PUSH1 0x5 DUP3 ADD SSTORE JUMPDEST PUSH1 0xC0 DUP4 ADD MLOAD SWAP3 DUP4 MLOAD PUSH1 0x1 PUSH1 0x1 PUSH1 0x40 SHL SUB DUP2 GT PUSH2 0xA02 JUMPI PUSH2 0x10D9 PUSH1 0x6 DUP5 ADD SLOAD PUSH2 0x23B9 JUMP JUMPDEST PUSH1 0x1F DUP2 GT PUSH2 0x1376 JUMPI JUMPDEST POP PUSH1 0x20 PUSH1 0x1F DUP3 GT PUSH1 0x1 EQ PUSH2 0x1303 JUMPI DUP2 SWAP1 PUSH1 0xE0 SWAP5 SWAP6 SWAP7 PUSH1 0x0 SWAP3 PUSH2 0x12F8 JUMPI JUMPDEST POP POP DUP2 PUSH1 0x1 SHL SWAP2 PUSH1 0x0 NOT SWAP1 PUSH1 0x3 SHL SHR NOT AND OR PUSH1 0x6 DUP5 ADD SSTORE JUMPDEST ADD MLOAD DUP1 MLOAD SWAP1 PUSH1 0x1 PUSH1 0x1 PUSH1 0x40 SHL SUB DUP3 GT PUSH2 0xA02 JUMPI PUSH2 0x1137 PUSH1 0x7 DUP5 ADD SLOAD PUSH2 0x23B9 JUMP JUMPDEST PUSH1 0x1F DUP2 GT PUSH2 0x12AD JUMPI JUMPDEST POP PUSH1 0x20 SWAP1 PUSH1 0x1F DUP4 GT PUSH1 0x1 EQ PUSH2 0x123F JUMPI PUSH1 0x7 SWAP3 SWAP2 PUSH1 0x0 SWAP2 DUP4 PUSH2 0x1234 JUMPI JUMPDEST POP POP DUP2 PUSH1 0x1 SHL SWAP2 PUSH1 0x0 NOT SWAP1 PUSH1 0x3 SHL SHR NOT AND OR SWAP2 ADD SSTORE JUMPDEST CALLER PUSH1 0x0 MSTORE PUSH1 0x7 PUSH1 0x20 MSTORE PUSH1 0x4 PUSH1 0x40 PUSH1 0x0 KECCAK256 ADD PUSH2 0x118D DUP2 SLOAD PUSH2 0x28DB JUMP JUMPDEST SWAP1 SSTORE CALLER PUSH1 0x0 MSTORE PUSH1 0xA PUSH1 0x20 MSTORE PUSH1 0x40 PUSH1 0x0 KECCAK256 DUP1 SLOAD PUSH9 0x10000000000000000 DUP2 LT ISZERO PUSH2 0xA02 JUMPI PUSH2 0x11BF SWAP2 PUSH1 0x1 DUP3 ADD DUP2 SSTORE PUSH2 0x238B JUMP JUMPDEST DUP2 SLOAD SWAP1 PUSH1 0x3 SHL SWAP1 PUSH1 0x4 CALLDATALOAD DUP3 SHL SWAP2 PUSH1 0x0 NOT SWAP1 SHL NOT AND OR SWAP1 SSTORE PUSH1 0x3 SLOAD PUSH1 0x1 DUP2 ADD DUP1 SWAP2 GT PUSH2 0x925 JUMPI PUSH1 0x3 SSTORE PUSH1 0x40 MLOAD SWAP1 TIMESTAMP DUP3 MSTORE PUSH1 0x40 PUSH1 0x20 DUP4 ADD MSTORE PUSH32 0x662785B6C849B5B04718A4178245524E1A62A43B3FA6827F6424D71EB1CB7649 CALLER SWAP3 DUP1 PUSH2 0x122A PUSH1 0x4 CALLDATALOAD SWAP5 PUSH1 0x40 DUP4 ADD SWAP1 PUSH2 0x2267 JUMP JUMPDEST SUB SWAP1 LOG3 PUSH1 0x1 PUSH1 0x2 SSTORE STOP JUMPDEST ADD MLOAD SWAP1 POP DUP6 DUP1 PUSH2 0x115C JUMP JUMPDEST SWAP1 PUSH1 0x1F NOT DUP4 AND SWAP2 PUSH1 0x7 DUP6 ADD PUSH1 0x0 MSTORE PUSH1 0x20 PUSH1 0x0 KECCAK256 SWAP3 PUSH1 0x0 JUMPDEST DUP2 DUP2 LT PUSH2 0x1295 JUMPI POP SWAP2 PUSH1 0x1 SWAP4 SWAP2 DUP6 PUSH1 0x7 SWAP7 SWAP5 LT PUSH2 0x127C JUMPI JUMPDEST POP POP POP DUP2 SHL ADD SWAP2 ADD SSTORE PUSH2 0x1172 JUMP JUMPDEST ADD MLOAD PUSH1 0x0 NOT PUSH1 0xF8 DUP5 PUSH1 0x3 SHL AND SHR NOT AND SWAP1 SSTORE DUP6 DUP1 DUP1 PUSH2 0x126E JUMP JUMPDEST SWAP3 SWAP4 PUSH1 0x20 PUSH1 0x1 DUP2 SWAP3 DUP8 DUP7 ADD MLOAD DUP2 SSTORE ADD SWAP6 ADD SWAP4 ADD PUSH2 0x1256 JUMP JUMPDEST PUSH1 0x7 DUP5 ADD PUSH1 0x0 MSTORE PUSH1 0x20 PUSH1 0x0 KECCAK256 PUSH1 0x1F DUP5 ADD PUSH1 0x5 SHR DUP2 ADD SWAP2 PUSH1 0x20 DUP6 LT PUSH2 0x12EE JUMPI JUMPDEST PUSH1 0x1F ADD PUSH1 0x5 SHR ADD SWAP1 JUMPDEST DUP2 DUP2 LT PUSH2 0x12E2 JUMPI POP PUSH2 0x1140 JUMP JUMPDEST PUSH1 0x0 DUP2 SSTORE PUSH1 0x1 ADD PUSH2 0x12D5 JUMP JUMPDEST SWAP1 SWAP2 POP DUP2 SWAP1 PUSH2 0x12CC JUMP JUMPDEST ADD MLOAD SWAP1 POP DUP7 DUP1 PUSH2 0x10FF JUMP JUMPDEST PUSH1 0x6 DUP5 ADD PUSH1 0x0 MSTORE PUSH1 0x20 PUSH1 0x0 KECCAK256 SWAP6 PUSH1 0x0 JUMPDEST PUSH1 0x1F NOT DUP5 AND DUP2 LT PUSH2 0x135E JUMPI POP SWAP6 DUP3 SWAP2 PUSH1 0xE0 SWAP6 SWAP7 SWAP8 PUSH1 0x1 SWAP5 PUSH1 0x1F NOT DUP2 AND LT PUSH2 0x1345 JUMPI JUMPDEST POP POP POP DUP2 SHL ADD PUSH1 0x6 DUP5 ADD SSTORE PUSH2 0x1117 JUMP JUMPDEST ADD MLOAD PUSH1 0x0 NOT PUSH1 0xF8 DUP5 PUSH1 0x3 SHL AND SHR NOT AND SWAP1 SSTORE DUP7 DUP1 DUP1 PUSH2 0x1335 JUMP JUMPDEST DUP3 DUP3 ADD MLOAD DUP9 SSTORE PUSH1 0x1 SWAP1 SWAP8 ADD SWAP7 PUSH1 0x20 SWAP3 DUP4 ADD SWAP3 ADD PUSH2 0x1313 JUMP JUMPDEST PUSH1 0x6 DUP5 ADD PUSH1 0x0 MSTORE PUSH1 0x20 PUSH1 0x0 KECCAK256 PUSH1 0x1F DUP4 ADD PUSH1 0x5 SHR DUP2 ADD PUSH1 0x20 DUP5 LT PUSH2 0x13B6 JUMPI JUMPDEST PUSH1 0x1F DUP4 ADD PUSH1 0x5 SHR DUP3 ADD DUP2 LT PUSH2 0x13AA JUMPI POP POP PUSH2 0x10E2 JUMP JUMPDEST PUSH1 0x0 DUP2 SSTORE PUSH1 0x1 ADD PUSH2 0x1394 JUMP JUMPDEST POP DUP1 PUSH2 0x1394 JUMP JUMPDEST ADD MLOAD SWAP1 POP DUP6 DUP1 PUSH2 0x109E JUMP JUMPDEST PUSH1 0x5 DUP4 ADD PUSH1 0x0 MSTORE PUSH1 0x20 PUSH1 0x0 KECCAK256 SWAP1 PUSH1 0x0 JUMPDEST PUSH1 0x1F NOT DUP5 AND DUP2 LT PUSH2 0x141F JUMPI POP PUSH1 0x1 SWAP4 SWAP5 SWAP6 SWAP7 DUP4 PUSH1 0x1F NOT DUP2 AND LT PUSH2 0x1406 JUMPI JUMPDEST POP POP POP DUP2 SHL ADD PUSH1 0x5 DUP3 ADD SSTORE PUSH2 0x10B6 JUMP JUMPDEST ADD MLOAD PUSH1 0x0 NOT PUSH1 0xF8 DUP5 PUSH1 0x3 SHL AND SHR NOT AND SWAP1 SSTORE DUP6 DUP1 DUP1 PUSH2 0x13F6 JUMP JUMPDEST SWAP1 SWAP2 PUSH1 0x20 PUSH1 0x1 DUP2 SWAP3 DUP6 DUP12 ADD MLOAD DUP2 SSTORE ADD SWAP4 ADD SWAP2 ADD PUSH2 0x13D8 JUMP JUMPDEST PUSH1 0x5 DUP4 ADD PUSH1 0x0 MSTORE PUSH1 0x20 PUSH1 0x0 KECCAK256 PUSH1 0x1F DUP4 ADD PUSH1 0x5 SHR DUP2 ADD PUSH1 0x20 DUP5 LT PUSH2 0x1477 JUMPI JUMPDEST PUSH1 0x1F DUP4 ADD PUSH1 0x5 SHR DUP3 ADD DUP2 LT PUSH2 0x146B JUMPI POP POP PUSH2 0x1083 JUMP JUMPDEST PUSH1 0x0 DUP2 SSTORE PUSH1 0x1 ADD PUSH2 0x1455 JUMP JUMPDEST POP DUP1 PUSH2 0x1455 JUMP JUMPDEST ADD MLOAD SWAP1 POP DUP6 DUP1 PUSH2 0x103F JUMP JUMPDEST PUSH1 0x4 DUP6 ADD PUSH1 0x0 MSTORE PUSH1 0x20 PUSH1 0x0 KECCAK256 SWAP1 PUSH1 0x0 JUMPDEST PUSH1 0x1F NOT DUP5 AND DUP2 LT PUSH2 0x14E0 JUMPI POP PUSH1 0x1 SWAP4 SWAP5 SWAP6 SWAP7 DUP4 PUSH1 0x1F NOT DUP2 AND LT PUSH2 0x14C7 JUMPI JUMPDEST POP POP POP DUP2 SHL ADD PUSH1 0x4 DUP5 ADD SSTORE PUSH2 0x1057 JUMP JUMPDEST ADD MLOAD PUSH1 0x0 NOT PUSH1 0xF8 DUP5 PUSH1 0x3 SHL AND SHR NOT AND SWAP1 SSTORE DUP6 DUP1 DUP1 PUSH2 0x14B7 JUMP JUMPDEST SWAP1 SWAP2 PUSH1 0x20 PUSH1 0x1 DUP2 SWAP3 DUP6 DUP12 ADD MLOAD DUP2 SSTORE ADD SWAP4 ADD SWAP2 ADD PUSH2 0x1499 JUMP JUMPDEST PUSH1 0x4 DUP6 ADD PUSH1 0x0 MSTORE PUSH1 0x20 PUSH1 0x0 KECCAK256 PUSH1 0x1F DUP4 ADD PUSH1 0x5 SHR DUP2 ADD PUSH1 0x20 DUP5 LT PUSH2 0x1538 JUMPI JUMPDEST PUSH1 0x1F DUP4 ADD PUSH1 0x5 SHR DUP3 ADD DUP2 LT PUSH2 0x152C JUMPI POP POP PUSH2 0x1024 JUMP JUMPDEST PUSH1 0x0 DUP2 SSTORE PUSH1 0x1 ADD PUSH2 0x1516 JUMP JUMPDEST POP DUP1 PUSH2 0x1516 JUMP JUMPDEST PUSH1 0x40 MLOAD PUSH3 0x461BCD PUSH1 0xE5 SHL DUP2 MSTORE PUSH1 0x20 PUSH1 0x4 DUP3 ADD MSTORE PUSH1 0x24 DUP1 DUP3 ADD MSTORE PUSH32 0x4372656456657273653A2043726564656E7469616C20616C7265616479206578 PUSH1 0x44 DUP3 ADD MSTORE PUSH4 0x69737473 PUSH1 0xE0 SHL PUSH1 0x64 DUP3 ADD MSTORE PUSH1 0x84 SWAP1 REVERT JUMPDEST PUSH1 0x64 PUSH1 0x40 MLOAD PUSH3 0x461BCD PUSH1 0xE5 SHL DUP2 MSTORE PUSH1 0x20 PUSH1 0x4 DUP3 ADD MSTORE PUSH1 0x20 PUSH1 0x24 DUP3 ADD MSTORE PUSH32 0x4372656456657273653A20496E76616C69642063726564656E7469616C204944 PUSH1 0x44 DUP3 ADD MSTORE REVERT JUMPDEST PUSH1 0x40 MLOAD PUSH3 0x461BCD PUSH1 0xE5 SHL DUP2 MSTORE PUSH1 0x20 PUSH1 0x4 DUP3 ADD MSTORE PUSH1 0x22 PUSH1 0x24 DUP3 ADD MSTORE PUSH32 0x4372656456657273653A20496E76616C69642063726564656E7469616C206861 PUSH1 0x44 DUP3 ADD MSTORE PUSH2 0xE6D PUSH1 0xF3 SHL PUSH1 0x64 DUP3 ADD MSTORE PUSH1 0x84 SWAP1 REVERT JUMPDEST CALLVALUE PUSH2 0x2BD JUMPI PUSH1 0x20 CALLDATASIZE PUSH1 0x3 NOT ADD SLT PUSH2 0x2BD JUMPI PUSH1 0x80 PUSH2 0x1642 PUSH1 0x4 CALLDATALOAD PUSH2 0x2929 JUMP JUMPDEST PUSH1 0x40 DUP1 MLOAD SWAP5 ISZERO ISZERO DUP6 MSTORE PUSH1 0x1 PUSH1 0x1 PUSH1 0xA0 SHL SUB SWAP1 SWAP4 AND PUSH1 0x20 DUP6 ADD MSTORE SWAP2 DUP4 ADD MSTORE ISZERO ISZERO PUSH1 0x60 DUP3 ADD MSTORE RETURN JUMPDEST CALLVALUE PUSH2 0x2BD JUMPI PUSH1 0x40 CALLDATASIZE PUSH1 0x3 NOT ADD SLT PUSH2 0x2BD JUMPI PUSH1 0x1 PUSH1 0x1 PUSH1 0x40 SHL SUB PUSH1 0x4 CALLDATALOAD PUSH1 0x24 CALLDATALOAD DUP3 DUP2 GT PUSH2 0x2BD JUMPI PUSH2 0x169C SWAP1 CALLDATASIZE SWAP1 PUSH1 0x4 ADD PUSH2 0x2335 JUMP JUMPDEST CALLER PUSH1 0x0 SWAP1 DUP2 MSTORE PUSH1 0x0 DUP1 MLOAD PUSH1 0x20 PUSH2 0x2B40 DUP4 CODECOPY DUP2 MLOAD SWAP2 MSTORE PUSH1 0x20 SWAP1 DUP2 MSTORE PUSH1 0x40 SWAP1 SWAP2 KECCAK256 SLOAD SWAP1 SWAP3 SWAP1 PUSH2 0x16CB SWAP1 PUSH1 0xFF AND PUSH2 0x2838 JUMP JUMPDEST CALLER PUSH1 0x0 MSTORE PUSH1 0x7 DUP4 MSTORE PUSH2 0x16E7 PUSH1 0xFF PUSH1 0x2 PUSH1 0x40 PUSH1 0x0 KECCAK256 ADD SLOAD AND PUSH2 0x288F JUMP JUMPDEST PUSH2 0x16EF PUSH2 0x2908 JUMP JUMPDEST PUSH2 0x16F7 PUSH2 0x28EA JUMP JUMPDEST DUP1 PUSH1 0x0 MSTORE PUSH1 0x6 DUP4 MSTORE PUSH1 0x1 SWAP3 CALLER PUSH1 0x1 DUP1 PUSH1 0xA0 SHL SUB DUP6 PUSH1 0x40 PUSH1 0x0 KECCAK256 ADD SLOAD AND SUB PUSH2 0x193A JUMPI DUP2 PUSH1 0x0 MSTORE PUSH1 0x6 DUP2 MSTORE PUSH1 0xFF PUSH1 0x3 PUSH1 0x40 PUSH1 0x0 KECCAK256 ADD SLOAD AND PUSH2 0x18E8 JUMPI DUP2 PUSH1 0x0 MSTORE PUSH1 0x6 DUP2 MSTORE PUSH1 0x40 PUSH1 0x0 KECCAK256 PUSH1 0x4 PUSH1 0x3 DUP3 ADD SWAP2 PUSH1 0xFF NOT SWAP3 DUP8 DUP5 DUP3 SLOAD AND OR SWAP1 SSTORE ADD DUP5 MLOAD SWAP7 DUP8 GT PUSH2 0xA02 JUMPI PUSH2 0x1764 DUP2 SLOAD PUSH2 0x23B9 JUMP JUMPDEST PUSH1 0x1F DUP2 GT PUSH2 0x189F JUMPI JUMPDEST POP DUP3 PUSH1 0x1F DUP9 GT PUSH1 0x1 EQ PUSH2 0x181B JUMPI SWAP7 DUP1 PUSH32 0x95D69BB5B24B6A634483884E0CC172A340175FEAF6BCC320DF0CF213855B3810 SWAP6 SWAP7 SWAP8 SWAP9 PUSH1 0x0 SWAP2 PUSH2 0x1810 JUMPI JUMPDEST POP PUSH1 0x0 NOT PUSH1 0x3 DUP4 SWAP1 SHL SHR NOT AND SWAP1 DUP9 SHL OR SWAP1 SSTORE JUMPDEST DUP4 PUSH1 0x0 MSTORE PUSH1 0xB DUP3 MSTORE DUP6 PUSH1 0x40 PUSH1 0x0 KECCAK256 SWAP2 DUP3 SLOAD AND OR SWAP1 SSTORE CALLER PUSH1 0x0 MSTORE PUSH1 0x7 DUP2 MSTORE PUSH1 0x5 PUSH1 0x40 PUSH1 0x0 KECCAK256 ADD PUSH2 0x17EB DUP2 SLOAD PUSH2 0x28DB JUMP JUMPDEST SWAP1 SSTORE PUSH1 0x40 DUP1 MLOAD SWAP2 TIMESTAMP DUP4 MSTORE DUP3 ADD MSTORE DUP1 PUSH2 0x1808 CALLER SWAP6 PUSH1 0x40 DUP4 ADD SWAP1 PUSH2 0x2267 JUMP JUMPDEST SUB SWAP1 LOG3 PUSH1 0x2 SSTORE STOP JUMPDEST SWAP1 POP DUP8 ADD MLOAD DUP10 PUSH2 0x17A9 JUMP JUMPDEST PUSH1 0x1F NOT DUP9 AND SWAP1 DUP3 PUSH1 0x0 MSTORE DUP5 PUSH1 0x0 KECCAK256 SWAP2 PUSH1 0x0 JUMPDEST DUP2 DUP2 LT PUSH2 0x188A JUMPI POP SWAP2 DUP10 SWAP2 DUP10 SWAP11 PUSH32 0x95D69BB5B24B6A634483884E0CC172A340175FEAF6BCC320DF0CF213855B3810 SWAP9 SWAP10 SWAP11 SWAP5 LT PUSH2 0x1871 JUMPI JUMPDEST POP POP DUP2 SHL ADD SWAP1 SSTORE PUSH2 0x17BC JUMP JUMPDEST DUP10 ADD MLOAD PUSH1 0x0 NOT PUSH1 0xF8 DUP5 PUSH1 0x3 SHL AND SHR NOT AND SWAP1 SSTORE DUP10 DUP1 PUSH2 0x1865 JUMP JUMPDEST DUP9 DUP4 ADD MLOAD DUP5 SSTORE SWAP3 DUP10 ADD SWAP3 SWAP2 DUP7 ADD SWAP2 DUP7 ADD PUSH2 0x182D JUMP JUMPDEST DUP2 PUSH1 0x0 MSTORE DUP4 PUSH1 0x0 KECCAK256 PUSH1 0x1F DUP10 ADD PUSH1 0x5 SHR DUP2 ADD SWAP2 DUP6 DUP11 LT PUSH2 0x18DE JUMPI JUMPDEST PUSH1 0x1F ADD PUSH1 0x5 SHR ADD SWAP1 DUP8 SWAP1 JUMPDEST DUP3 DUP2 LT PUSH2 0x18D2 JUMPI POP POP PUSH2 0x176D JUMP JUMPDEST PUSH1 0x0 DUP2 SSTORE ADD DUP8 SWAP1 PUSH2 0x18C4 JUMP JUMPDEST SWAP1 SWAP2 POP DUP2 SWAP1 PUSH2 0x18B9 JUMP JUMPDEST PUSH1 0x84 SWAP1 PUSH1 0x40 MLOAD SWAP1 PUSH3 0x461BCD PUSH1 0xE5 SHL DUP3 MSTORE PUSH1 0x4 DUP3 ADD MSTORE PUSH1 0x25 PUSH1 0x24 DUP3 ADD MSTORE PUSH32 0x4372656456657273653A2043726564656E7469616C20616C7265616479207265 PUSH1 0x44 DUP3 ADD MSTORE PUSH5 0x1D9BDAD959 PUSH1 0xDA SHL PUSH1 0x64 DUP3 ADD MSTORE REVERT JUMPDEST PUSH1 0x84 SWAP1 PUSH1 0x40 MLOAD SWAP1 PUSH3 0x461BCD PUSH1 0xE5 SHL DUP3 MSTORE PUSH1 0x4 DUP3 ADD MSTORE PUSH1 0x21 PUSH1 0x24 DUP3 ADD MSTORE PUSH32 0x4372656456657273653A204F6E6C79206973737565722063616E207265766F6B PUSH1 0x44 DUP3 ADD MSTORE PUSH1 0x65 PUSH1 0xF8 SHL PUSH1 0x64 DUP3 ADD MSTORE REVERT JUMPDEST CALLVALUE PUSH2 0x2BD JUMPI PUSH1 0x20 DUP1 PUSH1 0x3 NOT CALLDATASIZE ADD SLT PUSH2 0x2BD JUMPI PUSH2 0x19A2 PUSH2 0x223B JUMP JUMPDEST SWAP1 PUSH1 0x0 DUP1 MLOAD PUSH1 0x20 PUSH2 0x2B60 DUP4 CODECOPY DUP2 MLOAD SWAP2 MSTORE PUSH1 0x0 MSTORE PUSH1 0x0 DUP2 MSTORE PUSH1 0x40 PUSH1 0x0 KECCAK256 CALLER PUSH1 0x0 MSTORE DUP2 MSTORE PUSH2 0x19D5 PUSH1 0xFF PUSH1 0x40 PUSH1 0x0 KECCAK256 SLOAD AND PUSH2 0x2A23 JUMP JUMPDEST PUSH2 0x19DD PUSH2 0x2908 JUMP JUMPDEST PUSH2 0x19E5 PUSH2 0x28EA JUMP JUMPDEST PUSH1 0x1 PUSH1 0x1 PUSH1 0xA0 SHL SUB DUP3 AND PUSH1 0x0 DUP2 DUP2 MSTORE PUSH1 0x7 DUP4 MSTORE PUSH1 0x40 SWAP1 KECCAK256 PUSH1 0x2 ADD SLOAD SWAP1 SWAP3 SWAP1 PUSH1 0xFF AND ISZERO PUSH2 0x1A4E JUMPI SWAP1 PUSH2 0x649 PUSH32 0x7D646DFE52F77B8EF31868B9CDDADBD17EE190ABA7615B1C4C456BF6E5F5A2DA SWAP3 DUP5 PUSH1 0x0 MSTORE PUSH1 0x7 DUP4 MSTORE PUSH1 0x2 PUSH1 0x40 PUSH1 0x0 KECCAK256 ADD PUSH1 0xFF NOT DUP2 SLOAD AND SWAP1 SSTORE PUSH2 0x2691 JUMP JUMPDEST PUSH1 0x40 MLOAD PUSH3 0x461BCD PUSH1 0xE5 SHL DUP2 MSTORE PUSH1 0x4 DUP2 ADD DUP4 SWAP1 MSTORE PUSH1 0x27 PUSH1 0x24 DUP3 ADD MSTORE PUSH32 0x4372656456657273653A20497373756572206E6F7420666F756E64206F722069 PUSH1 0x44 DUP3 ADD MSTORE PUSH7 0x6E616374697665 PUSH1 0xC8 SHL PUSH1 0x64 DUP3 ADD MSTORE PUSH1 0x84 SWAP1 REVERT JUMPDEST CALLVALUE PUSH2 0x2BD JUMPI PUSH1 0x0 CALLDATASIZE PUSH1 0x3 NOT ADD SLT PUSH2 0x2BD JUMPI CALLER PUSH1 0x0 SWAP1 DUP2 MSTORE PUSH1 0x0 DUP1 MLOAD PUSH1 0x20 PUSH2 0x2B20 DUP4 CODECOPY DUP2 MLOAD SWAP2 MSTORE PUSH1 0x20 MSTORE PUSH1 0x40 SWAP1 KECCAK256 SLOAD PUSH2 0x1ADD SWAP1 PUSH1 0xFF AND PUSH2 0x2A23 JUMP JUMPDEST PUSH1 0x1 SLOAD PUSH1 0xFF DUP2 AND ISZERO PUSH2 0x1B1C JUMPI PUSH1 0xFF NOT AND PUSH1 0x1 SSTORE PUSH32 0x5DB9EE0A495BF2E6FF9C91A7834C1BA4FDD244A5E8AA4E537BD38AEAE4B073AA PUSH1 0x20 PUSH1 0x40 MLOAD CALLER DUP2 MSTORE LOG1 STOP JUMPDEST PUSH1 0x40 MLOAD PUSH4 0x8DFC202B PUSH1 0xE0 SHL DUP2 MSTORE PUSH1 0x4 SWAP1 REVERT JUMPDEST CALLVALUE PUSH2 0x2BD JUMPI PUSH1 0x0 CALLDATASIZE PUSH1 0x3 NOT ADD SLT PUSH2 0x2BD JUMPI PUSH2 0x57F PUSH1 0x40 MLOAD PUSH2 0x1B4E DUP2 PUSH2 0x22F9 JUMP JUMPDEST PUSH1 0x5 DUP2 MSTORE PUSH5 0x322E302E3 PUSH1 0xDC SHL PUSH1 0x20 DUP3 ADD MSTORE PUSH1 0x40 MLOAD SWAP2 DUP3 SWAP2 PUSH1 0x20 DUP4 MSTORE PUSH1 0x20 DUP4 ADD SWAP1 PUSH2 0x2267 JUMP JUMPDEST CALLVALUE PUSH2 0x2BD JUMPI PUSH1 0x20 CALLDATASIZE PUSH1 0x3 NOT ADD SLT PUSH2 0x2BD JUMPI PUSH1 0x1 PUSH1 0x1 PUSH1 0xA0 SHL SUB PUSH2 0x1B95 PUSH2 0x223B JUMP JUMPDEST AND PUSH1 0x0 MSTORE PUSH1 0x7 PUSH1 0x20 MSTORE PUSH2 0x1BEC PUSH1 0x40 PUSH1 0x0 KECCAK256 PUSH2 0x1BAF DUP2 PUSH2 0x23F3 JUMP JUMPDEST SWAP1 PUSH2 0x1BBC PUSH1 0x1 DUP3 ADD PUSH2 0x23F3 JUMP JUMPDEST PUSH1 0xFF PUSH1 0x2 DUP4 ADD SLOAD AND SWAP2 PUSH1 0x3 DUP2 ADD SLOAD PUSH2 0x1BFA PUSH1 0x5 PUSH1 0x4 DUP5 ADD SLOAD SWAP4 ADD SLOAD SWAP4 PUSH1 0x40 MLOAD SWAP8 DUP9 SWAP8 PUSH1 0xC0 DUP10 MSTORE PUSH1 0xC0 DUP10 ADD SWAP1 PUSH2 0x2267 JUMP JUMPDEST SWAP1 DUP8 DUP3 SUB PUSH1 0x20 DUP10 ADD MSTORE PUSH2 0x2267 JUMP JUMPDEST SWAP4 ISZERO ISZERO PUSH1 0x40 DUP7 ADD MSTORE PUSH1 0x60 DUP6 ADD MSTORE PUSH1 0x80 DUP5 ADD MSTORE PUSH1 0xA0 DUP4 ADD MSTORE SUB SWAP1 RETURN JUMPDEST CALLVALUE PUSH2 0x2BD JUMPI PUSH1 0x40 CALLDATASIZE PUSH1 0x3 NOT ADD SLT PUSH2 0x2BD JUMPI PUSH2 0x1C2E PUSH2 0x2251 JUMP JUMPDEST CALLER PUSH1 0x1 PUSH1 0x1 PUSH1 0xA0 SHL SUB DUP3 AND SUB PUSH2 0x1C4A JUMPI PUSH2 0x40D SWAP1 PUSH1 0x4 CALLDATALOAD PUSH2 0x27C3 JUMP JUMPDEST PUSH1 0x40 MLOAD PUSH4 0x334BD919 PUSH1 0xE1 SHL DUP2 MSTORE PUSH1 0x4 SWAP1 REVERT JUMPDEST CALLVALUE PUSH2 0x2BD JUMPI PUSH1 0x20 CALLDATASIZE PUSH1 0x3 NOT ADD SLT PUSH2 0x2BD JUMPI PUSH2 0x1C75 PUSH2 0x223B JUMP JUMPDEST PUSH1 0x1 PUSH1 0x1 PUSH1 0xA0 SHL SUB AND PUSH1 0x0 SWAP1 DUP2 MSTORE PUSH32 0x1DA0B5176DFE03406AF5A6EED66CA01DDA9B45AC4DA671C3FA379CB93717EF81 PUSH1 0x20 MSTORE PUSH1 0x40 SWAP1 KECCAK256 SLOAD PUSH1 0xFF AND DUP1 PUSH2 0x1CC1 JUMPI PUSH1 0x20 SWAP1 PUSH1 0x40 MLOAD SWAP1 ISZERO ISZERO DUP2 MSTORE RETURN JUMPDEST POP PUSH1 0x8 PUSH1 0x20 MSTORE PUSH1 0x40 PUSH1 0x0 KECCAK256 PUSH1 0x1 ADD SLOAD PUSH1 0xFF AND PUSH2 0xC19 JUMP JUMPDEST CALLVALUE PUSH2 0x2BD JUMPI PUSH1 0x40 CALLDATASIZE PUSH1 0x3 NOT ADD SLT PUSH2 0x2BD JUMPI PUSH2 0x40D PUSH1 0x4 CALLDATALOAD PUSH2 0x1CF7 PUSH2 0x2251 JUMP JUMPDEST SWAP1 DUP1 PUSH1 0x0 MSTORE PUSH1 0x0 PUSH1 0x20 MSTORE PUSH2 0x1D12 PUSH1 0x1 PUSH1 0x40 PUSH1 0x0 KECCAK256 ADD SLOAD PUSH2 0x2499 JUMP JUMPDEST PUSH2 0x2618 JUMP JUMPDEST CALLVALUE PUSH2 0x2BD JUMPI PUSH1 0x20 CALLDATASIZE PUSH1 0x3 NOT ADD SLT PUSH2 0x2BD JUMPI PUSH1 0x4 CALLDATALOAD PUSH1 0x0 MSTORE PUSH1 0x6 PUSH1 0x20 MSTORE PUSH1 0x40 PUSH1 0x0 KECCAK256 DUP1 SLOAD PUSH2 0x57F PUSH1 0x1 DUP1 PUSH1 0xA0 SHL SUB PUSH1 0x1 DUP5 ADD SLOAD AND SWAP3 PUSH2 0x1DDA PUSH1 0x2 DUP3 ADD SLOAD SWAP2 PUSH2 0x1DCC PUSH1 0xFF PUSH1 0x3 DUP4 ADD SLOAD AND PUSH2 0x1DBE PUSH2 0x1D6E PUSH1 0x4 DUP6 ADD PUSH2 0x23F3 JUMP JUMPDEST PUSH2 0x1D7A PUSH1 0x5 DUP7 ADD PUSH2 0x23F3 JUMP JUMPDEST SWAP3 PUSH2 0x1D93 PUSH1 0x7 PUSH2 0x1D8C PUSH1 0x6 DUP10 ADD PUSH2 0x23F3 JUMP JUMPDEST SWAP8 ADD PUSH2 0x23F3 JUMP JUMPDEST SWAP8 PUSH1 0x40 MLOAD SWAP12 DUP13 SWAP12 DUP13 MSTORE PUSH1 0x20 DUP13 ADD MSTORE PUSH1 0x40 DUP12 ADD MSTORE ISZERO ISZERO PUSH1 0x60 DUP11 ADD MSTORE PUSH2 0x100 DUP1 PUSH1 0x80 DUP12 ADD MSTORE DUP10 ADD SWAP1 PUSH2 0x2267 JUMP JUMPDEST SWAP1 DUP8 DUP3 SUB PUSH1 0xA0 DUP10 ADD MSTORE PUSH2 0x2267 JUMP JUMPDEST SWAP1 DUP6 DUP3 SUB PUSH1 0xC0 DUP8 ADD MSTORE PUSH2 0x2267 JUMP JUMPDEST SWAP1 DUP4 DUP3 SUB PUSH1 0xE0 DUP6 ADD MSTORE PUSH2 0x2267 JUMP JUMPDEST CALLVALUE PUSH2 0x2BD JUMPI PUSH1 0x20 CALLDATASIZE PUSH1 0x3 NOT ADD SLT PUSH2 0x2BD JUMPI PUSH1 0x4 CALLDATALOAD PUSH1 0x0 MSTORE PUSH1 0xB PUSH1 0x20 MSTORE PUSH1 0x20 PUSH1 0xFF PUSH1 0x40 PUSH1 0x0 KECCAK256 SLOAD AND PUSH1 0x40 MLOAD SWAP1 ISZERO ISZERO DUP2 MSTORE RETURN JUMPDEST CALLVALUE PUSH2 0x2BD JUMPI PUSH1 0x20 CALLDATASIZE PUSH1 0x3 NOT ADD SLT PUSH2 0x2BD JUMPI PUSH1 0x4 CALLDATALOAD PUSH1 0x0 MSTORE PUSH1 0x0 PUSH1 0x20 MSTORE PUSH1 0x20 PUSH1 0x1 PUSH1 0x40 PUSH1 0x0 KECCAK256 ADD SLOAD PUSH1 0x40 MLOAD SWAP1 DUP2 MSTORE RETURN JUMPDEST CALLVALUE PUSH2 0x2BD JUMPI PUSH1 0x40 CALLDATASIZE PUSH1 0x3 NOT ADD SLT PUSH2 0x2BD JUMPI PUSH2 0x1E61 PUSH2 0x223B JUMP JUMPDEST PUSH1 0x1 PUSH1 0x1 PUSH1 0xA0 SHL SUB AND PUSH1 0x0 SWAP1 DUP2 MSTORE PUSH1 0xA PUSH1 0x20 MSTORE PUSH1 0x40 SWAP1 KECCAK256 DUP1 SLOAD PUSH1 0x24 CALLDATALOAD SWAP2 SWAP1 DUP3 LT ISZERO PUSH2 0x2BD JUMPI PUSH1 0x20 SWAP2 PUSH2 0x1E92 SWAP2 PUSH2 0x238B JUMP JUMPDEST SWAP1 SLOAD PUSH1 0x40 MLOAD SWAP2 PUSH1 0x3 SHL SHR DUP2 MSTORE RETURN JUMPDEST CALLVALUE PUSH2 0x2BD JUMPI PUSH1 0x20 DUP1 PUSH1 0x3 NOT CALLDATASIZE ADD SLT PUSH2 0x2BD JUMPI PUSH1 0x1 PUSH1 0x1 PUSH1 0x40 SHL SUB SWAP1 PUSH1 0x4 CALLDATALOAD DUP3 DUP2 GT PUSH2 0x2BD JUMPI PUSH2 0x1ED3 SWAP1 CALLDATASIZE SWAP1 PUSH1 0x4 ADD PUSH2 0x2335 JUMP JUMPDEST SWAP1 PUSH1 0x0 DUP1 MLOAD PUSH1 0x20 PUSH2 0x2B60 DUP4 CODECOPY DUP2 MLOAD SWAP2 MSTORE PUSH1 0x0 MSTORE PUSH1 0x0 DUP2 MSTORE PUSH1 0x40 PUSH1 0x0 KECCAK256 CALLER PUSH1 0x0 MSTORE DUP2 MSTORE PUSH2 0x1F06 PUSH1 0xFF PUSH1 0x40 PUSH1 0x0 KECCAK256 SLOAD AND PUSH2 0x2A23 JUMP JUMPDEST PUSH2 0x1F0E PUSH2 0x2908 JUMP JUMPDEST PUSH2 0x1F16 PUSH2 0x28EA JUMP JUMPDEST PUSH2 0x1F22 DUP3 MLOAD ISZERO ISZERO PUSH2 0x2A79 JUMP JUMPDEST CALLER PUSH1 0x0 MSTORE PUSH1 0x9 DUP2 MSTORE PUSH2 0x1F3C PUSH1 0xFF PUSH1 0x40 PUSH1 0x0 KECCAK256 SLOAD AND ISZERO PUSH2 0x2AC5 JUMP JUMPDEST PUSH1 0x40 MLOAD SWAP2 PUSH2 0x1F49 DUP4 PUSH2 0x22A7 JUMP JUMPDEST DUP1 DUP4 MSTORE DUP2 DUP4 ADD SWAP3 PUSH1 0x1 SWAP4 DUP5 DUP2 MSTORE PUSH1 0x40 DUP3 ADD TIMESTAMP DUP2 MSTORE PUSH1 0x60 DUP4 ADD SWAP2 PUSH1 0x0 DUP4 MSTORE CALLER PUSH1 0x0 MSTORE PUSH1 0x8 DUP7 MSTORE PUSH1 0x40 PUSH1 0x0 KECCAK256 SWAP4 MLOAD SWAP8 DUP9 MLOAD SWAP1 DUP2 GT PUSH2 0xA02 JUMPI PUSH2 0x1F89 DUP6 SLOAD PUSH2 0x23B9 JUMP JUMPDEST PUSH1 0x1F DUP2 GT PUSH2 0x20D8 JUMPI JUMPDEST POP DUP7 PUSH1 0x1F DUP3 GT PUSH1 0x1 EQ PUSH2 0x206D JUMPI SWAP1 DUP1 PUSH2 0x1FDE SWAP4 SWAP3 PUSH1 0x3 SWAP8 SWAP9 SWAP10 SWAP11 SWAP12 PUSH1 0x0 SWAP3 PUSH2 0x2062 JUMPI JUMPDEST POP POP PUSH1 0x0 NOT DUP3 DUP9 SHL SHR NOT AND SWAP1 DUP11 SHL OR DUP7 SSTORE JUMPDEST MLOAD ISZERO ISZERO DUP9 DUP7 ADD SWAP1 PUSH1 0xFF DUP1 NOT DUP4 SLOAD AND SWAP2 ISZERO ISZERO AND OR SWAP1 SSTORE JUMP JUMPDEST MLOAD PUSH1 0x2 DUP5 ADD SSTORE MLOAD SWAP2 ADD SSTORE CALLER PUSH1 0x0 MSTORE PUSH1 0x9 DUP3 MSTORE PUSH1 0x40 PUSH1 0x0 KECCAK256 DUP4 PUSH1 0xFF NOT DUP3 SLOAD AND OR SWAP1 SSTORE PUSH2 0x2008 CALLER PUSH2 0x24DD JUMP JUMPDEST POP PUSH1 0x5 SLOAD SWAP1 DUP4 DUP3 ADD DUP1 SWAP3 GT PUSH2 0x925 JUMPI PUSH32 0x71B3DF882FA4DFC3EF37E44D815996A4F4677008EBDE3AE79FFE49FC7CF8A587 SWAP2 PUSH1 0x5 SSTORE PUSH2 0x2051 PUSH1 0x40 MLOAD SWAP2 PUSH1 0x40 DUP4 MSTORE PUSH1 0x40 DUP4 ADD SWAP1 PUSH2 0x2267 JUMP JUMPDEST SWAP3 TIMESTAMP SWAP1 DUP3 ADD MSTORE DUP1 CALLER SWAP4 SUB SWAP1 LOG2 PUSH1 0x2 SSTORE STOP JUMPDEST ADD MLOAD SWAP1 POP DUP12 DUP1 PUSH2 0x1FB5 JUMP JUMPDEST PUSH1 0x1F NOT DUP3 AND SWAP1 DUP7 PUSH1 0x0 MSTORE DUP9 PUSH1 0x0 KECCAK256 SWAP2 PUSH1 0x0 JUMPDEST DUP2 DUP2 LT PUSH2 0x20C3 JUMPI POP SWAP2 DUP4 SWAP2 DUP12 SWAP13 PUSH2 0x1FDE SWAP7 SWAP6 PUSH1 0x3 SWAP11 SWAP12 SWAP13 SWAP14 SWAP6 LT PUSH2 0x20AB JUMPI JUMPDEST POP POP POP DUP2 SHL ADD DUP7 SSTORE PUSH2 0x1FC7 JUMP JUMPDEST ADD MLOAD PUSH1 0x0 NOT DUP4 DUP11 SHL PUSH1 0xF8 AND SHR NOT AND SWAP1 SSTORE DUP12 DUP1 DUP1 PUSH2 0x209E JUMP JUMPDEST DUP13 DUP4 ADD MLOAD DUP5 SSTORE SWAP3 DUP12 ADD SWAP3 SWAP2 DUP11 ADD SWAP2 DUP11 ADD PUSH2 0x207F JUMP JUMPDEST DUP6 PUSH1 0x0 MSTORE DUP8 PUSH1 0x0 KECCAK256 PUSH1 0x1F DUP4 ADD PUSH1 0x5 SHR DUP2 ADD SWAP2 DUP10 DUP5 LT PUSH2 0x2117 JUMPI JUMPDEST PUSH1 0x1F ADD PUSH1 0x5 SHR ADD SWAP1 DUP10 SWAP1 JUMPDEST DUP3 DUP2 LT PUSH2 0x210B JUMPI POP POP PUSH2 0x1F92 JUMP JUMPDEST PUSH1 0x0 DUP2 SSTORE ADD DUP10 SWAP1 PUSH2 0x20FD JUMP JUMPDEST SWAP1 SWAP2 POP DUP2 SWAP1 PUSH2 0x20F2 JUMP JUMPDEST CALLVALUE PUSH2 0x2BD JUMPI PUSH1 0x20 DUP1 PUSH1 0x3 NOT CALLDATASIZE ADD SLT PUSH2 0x2BD JUMPI PUSH1 0x80 SWAP1 PUSH2 0x213E PUSH2 0x223B JUMP JUMPDEST PUSH1 0x0 PUSH1 0x60 PUSH1 0x40 MLOAD PUSH2 0x214E DUP2 PUSH2 0x22A7 JUMP JUMPDEST DUP2 DUP2 MSTORE DUP3 DUP6 DUP3 ADD MSTORE DUP3 PUSH1 0x40 DUP3 ADD MSTORE ADD MSTORE PUSH1 0x1 DUP1 PUSH1 0xA0 SHL SUB AND PUSH1 0x0 MSTORE PUSH1 0x8 DUP2 MSTORE PUSH1 0x40 PUSH1 0x0 KECCAK256 PUSH1 0x40 MLOAD SWAP2 PUSH2 0x217F DUP4 PUSH2 0x22A7 JUMP JUMPDEST PUSH2 0x2188 DUP3 PUSH2 0x23F3 JUMP JUMPDEST DUP4 MSTORE PUSH1 0xFF PUSH1 0x1 DUP4 ADD SLOAD AND SWAP2 DUP2 DUP5 ADD SWAP3 ISZERO ISZERO DUP4 MSTORE PUSH2 0x21CF PUSH1 0x3 PUSH1 0x2 DUP4 ADD SLOAD SWAP3 PUSH1 0x40 DUP8 ADD SWAP4 DUP5 MSTORE ADD SLOAD SWAP3 PUSH1 0x60 DUP7 ADD SWAP4 DUP5 MSTORE PUSH1 0x40 MLOAD SWAP7 DUP8 SWAP7 DUP3 DUP9 MSTORE MLOAD SWAP2 DUP8 ADD MSTORE PUSH1 0xA0 DUP7 ADD SWAP1 PUSH2 0x2267 JUMP JUMPDEST SWAP3 MLOAD ISZERO ISZERO PUSH1 0x40 DUP6 ADD MSTORE MLOAD PUSH1 0x60 DUP5 ADD MSTORE MLOAD PUSH1 0x80 DUP4 ADD MSTORE SUB SWAP1 RETURN JUMPDEST CALLVALUE PUSH2 0x2BD JUMPI PUSH1 0x20 CALLDATASIZE PUSH1 0x3 NOT ADD SLT PUSH2 0x2BD JUMPI PUSH1 0x4 CALLDATALOAD SWAP1 PUSH4 0xFFFFFFFF PUSH1 0xE0 SHL DUP3 AND DUP1 SWAP3 SUB PUSH2 0x2BD JUMPI PUSH1 0x20 SWAP2 PUSH4 0x7965DB0B PUSH1 0xE0 SHL DUP2 EQ SWAP1 DUP2 ISZERO PUSH2 0x222A JUMPI JUMPDEST POP ISZERO ISZERO DUP2 MSTORE RETURN JUMPDEST PUSH4 0x1FFC9A7 PUSH1 0xE0 SHL EQ SWAP1 POP DUP4 PUSH2 0x2223 JUMP JUMPDEST PUSH1 0x4 CALLDATALOAD SWAP1 PUSH1 0x1 PUSH1 0x1 PUSH1 0xA0 SHL SUB DUP3 AND DUP3 SUB PUSH2 0x2BD JUMPI JUMP JUMPDEST PUSH1 0x24 CALLDATALOAD SWAP1 PUSH1 0x1 PUSH1 0x1 PUSH1 0xA0 SHL SUB DUP3 AND DUP3 SUB PUSH2 0x2BD JUMPI JUMP JUMPDEST SWAP2 SWAP1 DUP3 MLOAD SWAP3 DUP4 DUP3 MSTORE PUSH1 0x0 JUMPDEST DUP5 DUP2 LT PUSH2 0x2293 JUMPI POP POP DUP3 PUSH1 0x0 PUSH1 0x20 DUP1 SWAP5 SWAP6 DUP5 ADD ADD MSTORE PUSH1 0x1F DUP1 NOT SWAP2 ADD AND ADD ADD SWAP1 JUMP JUMPDEST PUSH1 0x20 DUP2 DUP4 ADD DUP2 ADD MLOAD DUP5 DUP4 ADD DUP3 ADD MSTORE ADD PUSH2 0x2272 JUMP JUMPDEST PUSH1 0x80 DUP2 ADD SWAP1 DUP2 LT PUSH1 0x1 PUSH1 0x1 PUSH1 0x40 SHL SUB DUP3 GT OR PUSH2 0xA02 JUMPI PUSH1 0x40 MSTORE JUMP JUMPDEST PUSH2 0x100 DUP2 ADD SWAP1 DUP2 LT PUSH1 0x1 PUSH1 0x1 PUSH1 0x40 SHL SUB DUP3 GT OR PUSH2 0xA02 JUMPI PUSH1 0x40 MSTORE JUMP JUMPDEST PUSH1 0xC0 DUP2 ADD SWAP1 DUP2 LT PUSH1 0x1 PUSH1 0x1 PUSH1 0x40 SHL SUB DUP3 GT OR PUSH2 0xA02 JUMPI PUSH1 0x40 MSTORE JUMP JUMPDEST PUSH1 0x40 DUP2 ADD SWAP1 DUP2 LT PUSH1 0x1 PUSH1 0x1 PUSH1 0x40 SHL SUB DUP3 GT OR PUSH2 0xA02 JUMPI PUSH1 0x40 MSTORE JUMP JUMPDEST SWAP1 PUSH1 0x1F DUP1 NOT SWAP2 ADD AND DUP2 ADD SWAP1 DUP2 LT PUSH1 0x1 PUSH1 0x1 PUSH1 0x40 SHL SUB DUP3 GT OR PUSH2 0xA02 JUMPI PUSH1 0x40 MSTORE JUMP JUMPDEST DUP2 PUSH1 0x1F DUP3 ADD SLT ISZERO PUSH2 0x2BD JUMPI DUP1 CALLDATALOAD SWAP1 PUSH1 0x1 PUSH1 0x1 PUSH1 0x40 SHL SUB DUP3 GT PUSH2 0xA02 JUMPI PUSH1 0x40 MLOAD SWAP3 PUSH2 0x2369 PUSH1 0x1F DUP5 ADD PUSH1 0x1F NOT AND PUSH1 0x20 ADD DUP6 PUSH2 0x2314 JUMP JUMPDEST DUP3 DUP5 MSTORE PUSH1 0x20 DUP4 DUP4 ADD ADD GT PUSH2 0x2BD JUMPI DUP2 PUSH1 0x0 SWAP3 PUSH1 0x20 DUP1 SWAP4 ADD DUP4 DUP7 ADD CALLDATACOPY DUP4 ADD ADD MSTORE SWAP1 JUMP JUMPDEST DUP1 SLOAD DUP3 LT ISZERO PUSH2 0x23A3 JUMPI PUSH1 0x0 MSTORE PUSH1 0x20 PUSH1 0x0 KECCAK256 ADD SWAP1 PUSH1 0x0 SWAP1 JUMP JUMPDEST PUSH4 0x4E487B71 PUSH1 0xE0 SHL PUSH1 0x0 MSTORE PUSH1 0x32 PUSH1 0x4 MSTORE PUSH1 0x24 PUSH1 0x0 REVERT JUMPDEST SWAP1 PUSH1 0x1 DUP3 DUP2 SHR SWAP3 AND DUP1 ISZERO PUSH2 0x23E9 JUMPI JUMPDEST PUSH1 0x20 DUP4 LT EQ PUSH2 0x23D3 JUMPI JUMP JUMPDEST PUSH4 0x4E487B71 PUSH1 0xE0 SHL PUSH1 0x0 MSTORE PUSH1 0x22 PUSH1 0x4 MSTORE PUSH1 0x24 PUSH1 0x0 REVERT JUMPDEST SWAP2 PUSH1 0x7F AND SWAP2 PUSH2 0x23C8 JUMP JUMPDEST SWAP1 PUSH1 0x40 MLOAD SWAP2 DUP3 PUSH1 0x0 DUP3 SLOAD SWAP3 PUSH2 0x2407 DUP5 PUSH2 0x23B9 JUMP JUMPDEST SWAP1 DUP2 DUP5 MSTORE PUSH1 0x1 SWAP5 DUP6 DUP2 AND SWAP1 DUP2 PUSH1 0x0 EQ PUSH2 0x2476 JUMPI POP PUSH1 0x1 EQ PUSH2 0x2433 JUMPI JUMPDEST POP POP PUSH2 0x2431 SWAP3 POP SUB DUP4 PUSH2 0x2314 JUMP JUMPDEST JUMP JUMPDEST SWAP1 SWAP4 SWAP2 POP PUSH1 0x0 MSTORE PUSH1 0x20 SWAP1 DUP2 PUSH1 0x0 KECCAK256 SWAP4 PUSH1 0x0 SWAP2 JUMPDEST DUP2 DUP4 LT PUSH2 0x245E JUMPI POP POP PUSH2 0x2431 SWAP4 POP DUP3 ADD ADD CODESIZE DUP1 PUSH2 0x2423 JUMP JUMPDEST DUP6 SLOAD DUP9 DUP5 ADD DUP6 ADD MSTORE SWAP5 DUP6 ADD SWAP5 DUP8 SWAP5 POP SWAP2 DUP4 ADD SWAP2 PUSH2 0x2446 JUMP JUMPDEST SWAP2 POP POP PUSH2 0x2431 SWAP5 POP PUSH1 0x20 SWAP3 POP PUSH1 0xFF NOT AND DUP3 DUP5 ADD MSTORE ISZERO ISZERO PUSH1 0x5 SHL DUP3 ADD ADD CODESIZE DUP1 PUSH2 0x2423 JUMP JUMPDEST DUP1 PUSH1 0x0 MSTORE PUSH1 0x0 PUSH1 0x20 MSTORE PUSH1 0x40 PUSH1 0x0 KECCAK256 CALLER PUSH1 0x0 MSTORE PUSH1 0x20 MSTORE PUSH1 0xFF PUSH1 0x40 PUSH1 0x0 KECCAK256 SLOAD AND ISZERO PUSH2 0x24BF JUMPI POP JUMP JUMPDEST PUSH1 0x44 SWAP1 PUSH1 0x40 MLOAD SWAP1 PUSH4 0xE2517D3F PUSH1 0xE0 SHL DUP3 MSTORE CALLER PUSH1 0x4 DUP4 ADD MSTORE PUSH1 0x24 DUP3 ADD MSTORE REVERT JUMPDEST PUSH1 0x1 PUSH1 0x1 PUSH1 0xA0 SHL SUB AND PUSH1 0x0 DUP2 DUP2 MSTORE PUSH32 0x1DA0B5176DFE03406AF5A6EED66CA01DDA9B45AC4DA671C3FA379CB93717EF81 PUSH1 0x20 MSTORE PUSH1 0x40 DUP2 KECCAK256 SLOAD SWAP1 SWAP2 SWAP1 PUSH1 0x0 DUP1 MLOAD PUSH1 0x20 PUSH2 0x2B80 DUP4 CODECOPY DUP2 MLOAD SWAP2 MSTORE SWAP1 PUSH1 0xFF AND PUSH2 0x2578 JUMPI DUP1 DUP4 MSTORE DUP3 PUSH1 0x20 MSTORE PUSH1 0x40 DUP4 KECCAK256 DUP3 DUP5 MSTORE PUSH1 0x20 MSTORE PUSH1 0x40 DUP4 KECCAK256 PUSH1 0x1 PUSH1 0xFF NOT DUP3 SLOAD AND OR SWAP1 SSTORE PUSH32 0x2F8788117E7EFF1D82E926EC794901D17C78024A50270940304540A733656F0D CALLER SWAP4 DUP1 LOG4 PUSH1 0x1 SWAP1 JUMP JUMPDEST POP POP SWAP1 JUMP JUMPDEST PUSH1 0x1 PUSH1 0x1 PUSH1 0xA0 SHL SUB AND PUSH1 0x0 DUP2 DUP2 MSTORE PUSH1 0x0 DUP1 MLOAD PUSH1 0x20 PUSH2 0x2B40 DUP4 CODECOPY DUP2 MLOAD SWAP2 MSTORE PUSH1 0x20 MSTORE PUSH1 0x40 DUP2 KECCAK256 SLOAD SWAP1 SWAP2 SWAP1 PUSH32 0x114E74F6EA3BD819998F78687BFCB11B140DA08E9B7D222FA9C1F1BA1F2AA122 SWAP1 PUSH1 0xFF AND PUSH2 0x2578 JUMPI DUP1 DUP4 MSTORE DUP3 PUSH1 0x20 MSTORE PUSH1 0x40 DUP4 KECCAK256 DUP3 DUP5 MSTORE PUSH1 0x20 MSTORE PUSH1 0x40 DUP4 KECCAK256 PUSH1 0x1 PUSH1 0xFF NOT DUP3 SLOAD AND OR SWAP1 SSTORE PUSH32 0x2F8788117E7EFF1D82E926EC794901D17C78024A50270940304540A733656F0D CALLER SWAP4 DUP1 LOG4 PUSH1 0x1 SWAP1 JUMP JUMPDEST SWAP1 PUSH1 0x0 SWAP2 DUP1 DUP4 MSTORE DUP3 PUSH1 0x20 MSTORE PUSH1 0x40 DUP4 KECCAK256 SWAP2 PUSH1 0x1 DUP1 PUSH1 0xA0 SHL SUB AND SWAP2 DUP3 DUP5 MSTORE PUSH1 0x20 MSTORE PUSH1 0xFF PUSH1 0x40 DUP5 KECCAK256 SLOAD AND ISZERO PUSH1 0x0 EQ PUSH2 0x2578 JUMPI DUP1 DUP4 MSTORE DUP3 PUSH1 0x20 MSTORE PUSH1 0x40 DUP4 KECCAK256 DUP3 DUP5 MSTORE PUSH1 0x20 MSTORE PUSH1 0x40 DUP4 KECCAK256 PUSH1 0x1 PUSH1 0xFF NOT DUP3 SLOAD AND OR SWAP1 SSTORE PUSH32 0x2F8788117E7EFF1D82E926EC794901D17C78024A50270940304540A733656F0D CALLER SWAP4 DUP1 LOG4 PUSH1 0x1 SWAP1 JUMP JUMPDEST PUSH1 0x1 PUSH1 0x1 PUSH1 0xA0 SHL SUB AND PUSH1 0x0 DUP2 DUP2 MSTORE PUSH1 0x0 DUP1 MLOAD PUSH1 0x20 PUSH2 0x2B40 DUP4 CODECOPY DUP2 MLOAD SWAP2 MSTORE PUSH1 0x20 MSTORE PUSH1 0x40 DUP2 KECCAK256 SLOAD SWAP1 SWAP2 SWAP1 PUSH32 0x114E74F6EA3BD819998F78687BFCB11B140DA08E9B7D222FA9C1F1BA1F2AA122 SWAP1 PUSH1 0xFF AND ISZERO PUSH2 0x2578 JUMPI DUP1 DUP4 MSTORE DUP3 PUSH1 0x20 MSTORE PUSH1 0x40 DUP4 KECCAK256 DUP3 DUP5 MSTORE PUSH1 0x20 MSTORE PUSH1 0x40 DUP4 KECCAK256 PUSH1 0xFF NOT DUP2 SLOAD AND SWAP1 SSTORE PUSH32 0xF6391F5C32D9C69D2A47EA670B442974B53935D1EDC7FD64EB21E047A839171B CALLER SWAP4 DUP1 LOG4 PUSH1 0x1 SWAP1 JUMP JUMPDEST PUSH1 0x1 PUSH1 0x1 PUSH1 0xA0 SHL SUB AND PUSH1 0x0 DUP2 DUP2 MSTORE PUSH32 0x1DA0B5176DFE03406AF5A6EED66CA01DDA9B45AC4DA671C3FA379CB93717EF81 PUSH1 0x20 MSTORE PUSH1 0x40 DUP2 KECCAK256 SLOAD SWAP1 SWAP2 SWAP1 PUSH1 0x0 DUP1 MLOAD PUSH1 0x20 PUSH2 0x2B80 DUP4 CODECOPY DUP2 MLOAD SWAP2 MSTORE SWAP1 PUSH1 0xFF AND ISZERO PUSH2 0x2578 JUMPI DUP1 DUP4 MSTORE DUP3 PUSH1 0x20 MSTORE PUSH1 0x40 DUP4 KECCAK256 DUP3 DUP5 MSTORE PUSH1 0x20 MSTORE PUSH1 0x40 DUP4 KECCAK256 PUSH1 0xFF NOT DUP2 SLOAD AND SWAP1 SSTORE PUSH32 0xF6391F5C32D9C69D2A47EA670B442974B53935D1EDC7FD64EB21E047A839171B CALLER SWAP4 DUP1 LOG4 PUSH1 0x1 SWAP1 JUMP JUMPDEST SWAP1 PUSH1 0x0 SWAP2 DUP1 DUP4 MSTORE DUP3 PUSH1 0x20 MSTORE PUSH1 0x40 DUP4 KECCAK256 SWAP2 PUSH1 0x1 DUP1 PUSH1 0xA0 SHL SUB AND SWAP2 DUP3 DUP5 MSTORE PUSH1 0x20 MSTORE PUSH1 0xFF PUSH1 0x40 DUP5 KECCAK256 SLOAD AND PUSH1 0x0 EQ PUSH2 0x2578 JUMPI DUP1 DUP4 MSTORE DUP3 PUSH1 0x20 MSTORE PUSH1 0x40 DUP4 KECCAK256 DUP3 DUP5 MSTORE PUSH1 0x20 MSTORE PUSH1 0x40 DUP4 KECCAK256 PUSH1 0xFF NOT DUP2 SLOAD AND SWAP1 SSTORE PUSH32 0xF6391F5C32D9C69D2A47EA670B442974B53935D1EDC7FD64EB21E047A839171B CALLER SWAP4 DUP1 LOG4 PUSH1 0x1 SWAP1 JUMP JUMPDEST ISZERO PUSH2 0x283F JUMPI JUMP JUMPDEST PUSH1 0x40 MLOAD PUSH3 0x461BCD PUSH1 0xE5 SHL DUP2 MSTORE PUSH1 0x20 PUSH1 0x4 DUP3 ADD MSTORE PUSH1 0x22 PUSH1 0x24 DUP3 ADD MSTORE PUSH32 0x4372656456657273653A2043616C6C6572206973206E6F7420616E2069737375 PUSH1 0x44 DUP3 ADD MSTORE PUSH2 0x32B9 PUSH1 0xF1 SHL PUSH1 0x64 DUP3 ADD MSTORE PUSH1 0x84 SWAP1 REVERT JUMPDEST ISZERO PUSH2 0x2896 JUMPI JUMP JUMPDEST PUSH1 0x40 MLOAD PUSH3 0x461BCD PUSH1 0xE5 SHL DUP2 MSTORE PUSH1 0x20 PUSH1 0x4 DUP3 ADD MSTORE PUSH1 0x1F PUSH1 0x24 DUP3 ADD MSTORE PUSH32 0x4372656456657273653A20497373756572206973206E6F742061637469766500 PUSH1 0x44 DUP3 ADD MSTORE PUSH1 0x64 SWAP1 REVERT JUMPDEST PUSH1 0x0 NOT DUP2 EQ PUSH2 0x925 JUMPI PUSH1 0x1 ADD SWAP1 JUMP JUMPDEST PUSH1 0xFF PUSH1 0x1 SLOAD AND PUSH2 0x28F6 JUMPI JUMP JUMPDEST PUSH1 0x40 MLOAD PUSH4 0xD93C0665 PUSH1 0xE0 SHL DUP2 MSTORE PUSH1 0x4 SWAP1 REVERT JUMPDEST PUSH1 0x2 DUP1 SLOAD EQ PUSH2 0x2917 JUMPI PUSH1 0x2 DUP1 SSTORE JUMP JUMPDEST PUSH1 0x40 MLOAD PUSH4 0x3EE5AEB5 PUSH1 0xE0 SHL DUP2 MSTORE PUSH1 0x4 SWAP1 REVERT JUMPDEST PUSH1 0x0 SWAP1 DUP2 MSTORE PUSH1 0x6 PUSH1 0x20 MSTORE PUSH1 0x40 DUP2 KECCAK256 SWAP2 PUSH1 0x40 MLOAD SWAP2 PUSH2 0x2945 DUP4 PUSH2 0x22C2 JUMP JUMPDEST DUP4 SLOAD DUP4 MSTORE PUSH1 0x1 DUP1 PUSH1 0xA0 SHL SUB SWAP2 DUP3 PUSH1 0x1 DUP7 ADD SLOAD AND SWAP5 PUSH1 0x20 DUP6 ADD SWAP6 DUP7 MSTORE PUSH1 0x2 DUP2 ADD SLOAD SWAP5 PUSH1 0x40 DUP2 ADD SWAP6 DUP7 MSTORE PUSH2 0x29BD PUSH1 0x7 PUSH1 0xFF PUSH1 0x3 DUP6 ADD SLOAD AND SWAP4 PUSH1 0x60 DUP5 ADD SWAP5 ISZERO ISZERO DUP6 MSTORE PUSH2 0x2990 PUSH1 0x4 DUP3 ADD PUSH2 0x23F3 JUMP JUMPDEST PUSH1 0x80 DUP6 ADD MSTORE PUSH2 0x29A1 PUSH1 0x5 DUP3 ADD PUSH2 0x23F3 JUMP JUMPDEST PUSH1 0xA0 DUP6 ADD MSTORE PUSH2 0x29B2 PUSH1 0x6 DUP3 ADD PUSH2 0x23F3 JUMP JUMPDEST PUSH1 0xC0 DUP6 ADD MSTORE ADD PUSH2 0x23F3 JUMP JUMPDEST PUSH1 0xE0 DUP3 ADD MSTORE MLOAD ISZERO PUSH2 0x2A16 JUMPI PUSH1 0x40 PUSH1 0xFF SWAP2 MLOAD ISZERO SWAP5 DUP6 DUP1 SWAP7 PUSH2 0x2A0E JUMPI JUMPDEST SWAP8 MLOAD AND SWAP6 MLOAD SWAP5 ISZERO SWAP4 PUSH1 0x0 DUP1 MLOAD PUSH1 0x20 PUSH2 0x2B80 DUP4 CODECOPY DUP2 MLOAD SWAP2 MSTORE DUP2 MSTORE DUP1 PUSH1 0x20 MSTORE DUP2 DUP2 KECCAK256 CALLER DUP3 MSTORE PUSH1 0x20 MSTORE KECCAK256 SLOAD AND PUSH2 0x2A07 JUMPI JUMP JUMPDEST PUSH1 0x8 PUSH1 0x20 MSTORE JUMP JUMPDEST POP PUSH1 0x1 PUSH2 0x29D8 JUMP JUMPDEST POP SWAP3 POP SWAP3 POP POP DUP2 DUP1 SWAP2 DUP2 SWAP1 JUMP JUMPDEST ISZERO PUSH2 0x2A2A JUMPI JUMP JUMPDEST PUSH1 0x40 MLOAD PUSH3 0x461BCD PUSH1 0xE5 SHL DUP2 MSTORE PUSH1 0x20 PUSH1 0x4 DUP3 ADD MSTORE PUSH1 0x21 PUSH1 0x24 DUP3 ADD MSTORE PUSH32 0x4372656456657273653A2043616C6C6572206973206E6F7420616E2061646D69 PUSH1 0x44 DUP3 ADD MSTORE PUSH1 0x37 PUSH1 0xF9 SHL PUSH1 0x64 DUP3 ADD MSTORE PUSH1 0x84 SWAP1 REVERT JUMPDEST ISZERO PUSH2 0x2A80 JUMPI JUMP JUMPDEST PUSH1 0x40 MLOAD PUSH3 0x461BCD PUSH1 0xE5 SHL DUP2 MSTORE PUSH1 0x20 PUSH1 0x4 DUP3 ADD MSTORE PUSH1 0x17 PUSH1 0x24 DUP3 ADD MSTORE PUSH32 0x4372656456657273653A20496E76616C6964206E616D65000000000000000000 PUSH1 0x44 DUP3 ADD MSTORE PUSH1 0x64 SWAP1 REVERT JUMPDEST ISZERO PUSH2 0x2ACC JUMPI JUMP JUMPDEST PUSH1 0x40 MLOAD PUSH3 0x461BCD PUSH1 0xE5 SHL DUP2 MSTORE PUSH1 0x20 PUSH1 0x4 DUP3 ADD MSTORE PUSH1 0x25 PUSH1 0x24 DUP3 ADD MSTORE PUSH32 0x4372656456657273653A204164647265737320616C7265616479207265676973 PUSH1 0x44 DUP3 ADD MSTORE PUSH5 0x1D195C9959 PUSH1 0xDA SHL PUSH1 0x64 DUP3 ADD MSTORE PUSH1 0x84 SWAP1 REVERT INVALID PUSH30 0x7FFB7A348E1C6A02869081A26547B49160DD3DF72D1D75A570EB9B698292 0xEC 0xF9 0xC0 MUL CREATE2 PUSH28 0xB53B4D861AE1EF1369A8087D06C8210E4846F897918D0E534663CEA4 SWAP9 SMOD KECCAK256 0x5C 0xE4 0xD3 SSTORE MULMOD 0x2E CREATE2 0xA8 LOG1 DUP16 JUMP 0xE8 SWAP2 EXTCODECOPY DELEGATECALL LOG2 ADD 0xFB 0xE2 DUP8 DUP3 JUMPDEST MULMOD JUMP SWAP4 0xC2 OR PUSH22 0xCE23C3E399818CFEE81A7AB0880F714E53D7672B08D CREATE STATICCALL PUSH3 0xF28434 AND 0xE1 0xEA MULMOD LOG2 PUSH5 0x6970667358 0x22 SLT KECCAK256 0x5E 0x5C 0x23 0x4B PUSH7 0xDB37A148C04E4 SAR NUMBER 0xE2 CALLDATALOAD DUP14 0xB9 0x4F PUSH4 0x34949D69 0x24 0x23 0xD6 0xA8 PUSH30 0xB073CC64736F6C634300081400332F8788117E7EFF1D82E926EC794901D1 PUSH29 0x78024A50270940304540A733656F0D0000000000000000000000000000 "},"methodIdentifiers":{"ADMIN_ROLE()":"75b238fc","CONTRACT_NAME()":"614d08f8","CONTRACT_VERSION()":"38b90333","DEFAULT_ADMIN_ROLE()":"a217fddf","ISSUER_ROLE()":"82aefa24","VERIFIER_ROLE()":"e7705db6","anchorCredential(bytes32,string,string,string)":"595d8faa","credentials(bytes32)":"299d0348","emergencyRecover(address,address,uint256)":"ad1329d1","getContractStats()":"dfe6b5d6","getCredential(bytes32)":"d1be4883","getIssuer(address)":"fef03da3","getIssuerCredentials(address)":"d8202ffb","getRoleAdmin(bytes32)":"248a9ca3","getVerifier(address)":"059ce95d","grantRole(bytes32,address)":"2f2ff15d","hasRole(bytes32,address)":"91d14854","isIssuer(address)":"877b9a67","isVerifier(address)":"33105218","issuerCredentials(address,uint256)":"1abac44b","issuers(address)":"38a7543e","pause()":"8456cb59","paused()":"5c975abb","registerIssuer(string,string)":"c7f13ff5","registerVerifier(string)":"16cb4218","registeredAddresses(address)":"76b22eac","removeIssuer(address)":"47bc7093","removeVerifier(address)":"ca2dfd0a","renounceRole(bytes32,address)":"36568abe","revokeCredential(bytes32,string)":"493814b5","revokeRole(bytes32,address)":"d547741f","revokedCredentials(bytes32)":"249b92a0","supportsInterface(bytes4)":"01ffc9a7","unpause()":"3f4ba83a","verifiers(address)":"6c824487","verifyCredential(bytes32)":"4dbf87cc"}}}}}